00022021000020270040365000000000000000000000000001032021050320210205533                                                                                                                                                                                                                                                                                                                                                                                                                                                                                                                                                                                                                                                                                                                                                                                                                                                                                                                                                                                         
00010320210503202127203244032000203244030020931KRAMPITZ EMA ADELA         1203244030400000000000                           000000000040010000002000000000000000000000000000000000000000000000000000000000000000000000000000000000000000000000000000000000000000000000000000000000000000000000000000000000000000000000000000000000000000000000000000000000000000000000000000000000000000000000000000000000000000000000000000000000000000000000000000000000000000000000000000000000000000000000000000000000000000000000000000000000000000000000000000000000000000000000000000000000000000000101210000000000000000000000000000000000000000GOBIERNO DE LA PROVINCIA DE CORDOBA   MINISTERIO DE PROMOCION DEL EMPLEO Y EPROGRAMA VIDA DIGNA                   APODERADO DE                          KRAMPITZ EMA ADELA                                                                                                                                      100000000000000000000000000 000000000000000000000000000020000005533                                      
00010320210503202124371069395000371069390020931SANCHEZ OSCAR              1371069390400000000000                           000000000040010000002000000000000000000000000000000000000000000000000000000000000000000000000000000000000000000000000000000000000000000000000000000000000000000000000000000000000000000000000000000000000000000000000000000000000000000000000000000000000000000000000000000000000000000000000000000000000000000000000000000000000000000000000000000000000000000000000000000000000000000000000000000000000000000000000000000000000000000000000000000000000000000101210000000000000000000000000000000000000000GOBIERNO DE LA PROVINCIA DE CORDOBA   MINISTERIO DE PROMOCION DEL EMPLEO Y EPROGRAMA VIDA DIGNA                   APODERADO DE                          SANCHEZ OSCAR                                                                                                                                           100000000000000000000000000 000000000000000000000000000020000005533                                      
00010320210503202127329078251000329078250020931QUINTERO PAULA VIVIANA     1329078250400000000000                           000000000040010000002000000000000000000000000000000000000000000000000000000000000000000000000000000000000000000000000000000000000000000000000000000000000000000000000000000000000000000000000000000000000000000000000000000000000000000000000000000000000000000000000000000000000000000000000000000000000000000000000000000000000000000000000000000000000000000000000000000000000000000000000000000000000000000000000000000000000000000000000000000000000000000101210000000000000000000000000000000000000000GOBIERNO DE LA PROVINCIA DE CORDOBA   MINISTERIO DE PROMOCION DEL EMPLEO Y EPROGRAMA VIDA DIGNA                   APODERADO DE                          QUINTERO PAULA VIVIANA                                                                                                                                  100000000000000000000000000 000000000000000000000000000020000005533                                      
00010320210503202127253887104000253887100020931ROSALES MARIA AZUCENA      1253887100400000000000                           000000000040010000002000000000000000000000000000000000000000000000000000000000000000000000000000000000000000000000000000000000000000000000000000000000000000000000000000000000000000000000000000000000000000000000000000000000000000000000000000000000000000000000000000000000000000000000000000000000000000000000000000000000000000000000000000000000000000000000000000000000000000000000000000000000000000000000000000000000000000000000000000000000000000000101210000000000000000000000000000000000000000GOBIERNO DE LA PROVINCIA DE CORDOBA   MINISTERIO DE PROMOCION DEL EMPLEO Y EPROGRAMA VIDA DIGNA                   APODERADO DE                          ROSALES MARIA AZUCENA                                                                                                                                   100000000000000000000000000 000000000000000000000000000020000005533                                      
00010320210503202102795007589000950075890020931MURO BARNUEVO JANETH ROSMER1950075890400000000000                           000000000040010000002000000000000000000000000000000000000000000000000000000000000000000000000000000000000000000000000000000000000000000000000000000000000000000000000000000000000000000000000000000000000000000000000000000000000000000000000000000000000000000000000000000000000000000000000000000000000000000000000000000000000000000000000000000000000000000000000000000000000000000000000000000000000000000000000000000000000000000000000000000000000000000101210000000000000000000000000000000000000000GOBIERNO DE LA PROVINCIA DE CORDOBA   MINISTERIO DE PROMOCION DEL EMPLEO Y EPROGRAMA VIDA DIGNA                   APODERADO DE                          MURO BARNUEVO JANETH ROSMERY                                                                                                                            100000000000000000000000000 000000000000000000000000000020000005533                                      
00010320210503202127387742021000387742020020931CABRERA NATALIA SOLEDAD    1387742020400000000000                           000000000040010000002000000000000000000000000000000000000000000000000000000000000000000000000000000000000000000000000000000000000000000000000000000000000000000000000000000000000000000000000000000000000000000000000000000000000000000000000000000000000000000000000000000000000000000000000000000000000000000000000000000000000000000000000000000000000000000000000000000000000000000000000000000000000000000000000000000000000000000000000000000000000000000101210000000000000000000000000000000000000000GOBIERNO DE LA PROVINCIA DE CORDOBA   MINISTERIO DE PROMOCION DEL EMPLEO Y EPROGRAMA VIDA DIGNA                   APODERADO DE                          CABRERA NATALIA SOLEDAD                                                                                                                                 100000000000000000000000000 000000000000000000000000000020000005533                                      
00010320210503202127122574011000122574010020931CEPEDA MARTA ESTER         1122574010400000000000                           000000000040010000002000000000000000000000000000000000000000000000000000000000000000000000000000000000000000000000000000000000000000000000000000000000000000000000000000000000000000000000000000000000000000000000000000000000000000000000000000000000000000000000000000000000000000000000000000000000000000000000000000000000000000000000000000000000000000000000000000000000000000000000000000000000000000000000000000000000000000000000000000000000000000000101210000000000000000000000000000000000000000GOBIERNO DE LA PROVINCIA DE CORDOBA   MINISTERIO DE PROMOCION DEL EMPLEO Y EPROGRAMA VIDA DIGNA                   APODERADO DE                          CEPEDA MARTA ESTER                                                                                                                                      100000000000000000000000000 000000000000000000000000000020000005533                                      
00010320210503202120300239642000300239640020931MENSEGUE JUAN CARLOS       1300239640400000000000                           000000000040010000002000000000000000000000000000000000000000000000000000000000000000000000000000000000000000000000000000000000000000000000000000000000000000000000000000000000000000000000000000000000000000000000000000000000000000000000000000000000000000000000000000000000000000000000000000000000000000000000000000000000000000000000000000000000000000000000000000000000000000000000000000000000000000000000000000000000000000000000000000000000000000000101210000000000000000000000000000000000000000GOBIERNO DE LA PROVINCIA DE CORDOBA   MINISTERIO DE PROMOCION DEL EMPLEO Y EPROGRAMA VIDA DIGNA                   APODERADO DE                          MENSEGUE JUAN CARLOS                                                                                                                                    100000000000000000000000000 000000000000000000000000000020000005533                                      
00010320210503202120301254726000301254720020931MOLINA JUAN PABLO          1301254720400000000000                           000000000040010000002000000000000000000000000000000000000000000000000000000000000000000000000000000000000000000000000000000000000000000000000000000000000000000000000000000000000000000000000000000000000000000000000000000000000000000000000000000000000000000000000000000000000000000000000000000000000000000000000000000000000000000000000000000000000000000000000000000000000000000000000000000000000000000000000000000000000000000000000000000000000000000101210000000000000000000000000000000000000000GOBIERNO DE LA PROVINCIA DE CORDOBA   MINISTERIO DE PROMOCION DEL EMPLEO Y EPROGRAMA VIDA DIGNA                   APODERADO DE                          MOLINA JUAN PABLO                                                                                                                                       100000000000000000000000000 000000000000000000000000000020000005533                                      
00010320210503202120137140005000137140000020931PE헤 HEBERTO EFRAIN        1137140000400000000000                           000000000040010000002000000000000000000000000000000000000000000000000000000000000000000000000000000000000000000000000000000000000000000000000000000000000000000000000000000000000000000000000000000000000000000000000000000000000000000000000000000000000000000000000000000000000000000000000000000000000000000000000000000000000000000000000000000000000000000000000000000000000000000000000000000000000000000000000000000000000000000000000000000000000000000101210000000000000000000000000000000000000000GOBIERNO DE LA PROVINCIA DE CORDOBA   MINISTERIO DE PROMOCION DEL EMPLEO Y EPROGRAMA VIDA DIGNA                   APODERADO DE                          PE헤 HEBERTO EFRAIN                                                                                                                                     100000000000000000000000000 000000000000000000000000000020000005533                                      
00010320210503202123253220899000253220890020931RODRIGUEZ ALFREDO ANTONIO  1253220890400000000000                           000000000040010000002000000000000000000000000000000000000000000000000000000000000000000000000000000000000000000000000000000000000000000000000000000000000000000000000000000000000000000000000000000000000000000000000000000000000000000000000000000000000000000000000000000000000000000000000000000000000000000000000000000000000000000000000000000000000000000000000000000000000000000000000000000000000000000000000000000000000000000000000000000000000000000101210000000000000000000000000000000000000000GOBIERNO DE LA PROVINCIA DE CORDOBA   MINISTERIO DE PROMOCION DEL EMPLEO Y EPROGRAMA VIDA DIGNA                   APODERADO DE                          RODRIGUEZ ALFREDO ANTONIO                                                                                                                               100000000000000000000000000 000000000000000000000000000020000005533                                      
00010320210503202120367954931000367954930020931VIALOBO FRANCO DANIEL      1367954930400000000000                           000000000040010000002000000000000000000000000000000000000000000000000000000000000000000000000000000000000000000000000000000000000000000000000000000000000000000000000000000000000000000000000000000000000000000000000000000000000000000000000000000000000000000000000000000000000000000000000000000000000000000000000000000000000000000000000000000000000000000000000000000000000000000000000000000000000000000000000000000000000000000000000000000000000000000101210000000000000000000000000000000000000000GOBIERNO DE LA PROVINCIA DE CORDOBA   MINISTERIO DE PROMOCION DEL EMPLEO Y EPROGRAMA VIDA DIGNA                   APODERADO DE                          VIALOBO FRANCO DANIEL                                                                                                                                   100000000000000000000000000 000000000000000000000000000020000005533                                      
00010320210503202127285294563000285294560020931VIDELA SOLEDAD DEL CARMEN  1285294560400000000000                           000000000040010000002000000000000000000000000000000000000000000000000000000000000000000000000000000000000000000000000000000000000000000000000000000000000000000000000000000000000000000000000000000000000000000000000000000000000000000000000000000000000000000000000000000000000000000000000000000000000000000000000000000000000000000000000000000000000000000000000000000000000000000000000000000000000000000000000000000000000000000000000000000000000000000101210000000000000000000000000000000000000000GOBIERNO DE LA PROVINCIA DE CORDOBA   MINISTERIO DE PROMOCION DEL EMPLEO Y EPROGRAMA VIDA DIGNA                   APODERADO DE                          VIDELA SOLEDAD DEL CARMEN                                                                                                                               100000000000000000000000000 000000000000000000000000000020000005533                                      
00010320210503202120385016817000385016810020931ASTRADA SANTIAGO GABRIEL   1385016810400000000000                           000000000040010000002000000000000000000000000000000000000000000000000000000000000000000000000000000000000000000000000000000000000000000000000000000000000000000000000000000000000000000000000000000000000000000000000000000000000000000000000000000000000000000000000000000000000000000000000000000000000000000000000000000000000000000000000000000000000000000000000000000000000000000000000000000000000000000000000000000000000000000000000000000000000000000101210000000000000000000000000000000000000000GOBIERNO DE LA PROVINCIA DE CORDOBA   MINISTERIO DE PROMOCION DEL EMPLEO Y EPROGRAMA VIDA DIGNA                   APODERADO DE                          ASTRADA SANTIAGO GABRIEL                                                                                                                                100000000000000000000000000 000000000000000000000000000020000005533                                      
00010320210503202127136816107000136816100020931CONDE MIRTA                1136816100400000000000                           000000000040010000002000000000000000000000000000000000000000000000000000000000000000000000000000000000000000000000000000000000000000000000000000000000000000000000000000000000000000000000000000000000000000000000000000000000000000000000000000000000000000000000000000000000000000000000000000000000000000000000000000000000000000000000000000000000000000000000000000000000000000000000000000000000000000000000000000000000000000000000000000000000000000000101210000000000000000000000000000000000000000GOBIERNO DE LA PROVINCIA DE CORDOBA   MINISTERIO DE PROMOCION DEL EMPLEO Y EPROGRAMA VIDA DIGNA                   APODERADO DE                          CONDE MIRTA                                                                                                                                             100000000000000000000000000 000000000000000000000000000020000005533                                      
00010320210503202127024499060000024499060020931GIJON BLANCA AURORA        1024499060400000000000                           000000000040010000002000000000000000000000000000000000000000000000000000000000000000000000000000000000000000000000000000000000000000000000000000000000000000000000000000000000000000000000000000000000000000000000000000000000000000000000000000000000000000000000000000000000000000000000000000000000000000000000000000000000000000000000000000000000000000000000000000000000000000000000000000000000000000000000000000000000000000000000000000000000000000000101210000000000000000000000000000000000000000GOBIERNO DE LA PROVINCIA DE CORDOBA   MINISTERIO DE PROMOCION DEL EMPLEO Y EPROGRAMA VIDA DIGNA                   APODERADO DE                          GIJON BLANCA AURORA                                                                                                                                     100000000000000000000000000 000000000000000000000000000020000005533                                      
00010320210503202120105445572000105445570020931MERLO ALBERTO              1105445570400000000000                           000000000040010000002000000000000000000000000000000000000000000000000000000000000000000000000000000000000000000000000000000000000000000000000000000000000000000000000000000000000000000000000000000000000000000000000000000000000000000000000000000000000000000000000000000000000000000000000000000000000000000000000000000000000000000000000000000000000000000000000000000000000000000000000000000000000000000000000000000000000000000000000000000000000000000101210000000000000000000000000000000000000000GOBIERNO DE LA PROVINCIA DE CORDOBA   MINISTERIO DE PROMOCION DEL EMPLEO Y EPROGRAMA VIDA DIGNA                   APODERADO DE                          MERLO ALBERTO                                                                                                                                           100000000000000000000000000 000000000000000000000000000020000005533                                      
00010320210503202127367737935000367737930020931MONTOYA MELISA ANDREA      1367737930400000000000                           000000000040010000002000000000000000000000000000000000000000000000000000000000000000000000000000000000000000000000000000000000000000000000000000000000000000000000000000000000000000000000000000000000000000000000000000000000000000000000000000000000000000000000000000000000000000000000000000000000000000000000000000000000000000000000000000000000000000000000000000000000000000000000000000000000000000000000000000000000000000000000000000000000000000000101210000000000000000000000000000000000000000GOBIERNO DE LA PROVINCIA DE CORDOBA   MINISTERIO DE PROMOCION DEL EMPLEO Y EPROGRAMA VIDA DIGNA                   APODERADO DE                          MONTOYA MELISA ANDREA                                                                                                                                   100000000000000000000000000 000000000000000000000000000020000005533                                      
00010320210503202127217561847000217561840020931MORETA MONICA FABIANA      1217561840400000000000                           000000000040010000002000000000000000000000000000000000000000000000000000000000000000000000000000000000000000000000000000000000000000000000000000000000000000000000000000000000000000000000000000000000000000000000000000000000000000000000000000000000000000000000000000000000000000000000000000000000000000000000000000000000000000000000000000000000000000000000000000000000000000000000000000000000000000000000000000000000000000000000000000000000000000000101210000000000000000000000000000000000000000GOBIERNO DE LA PROVINCIA DE CORDOBA   MINISTERIO DE PROMOCION DEL EMPLEO Y EPROGRAMA VIDA DIGNA                   APODERADO DE                          MORETA MONICA FABIANA                                                                                                                                   100000000000000000000000000 000000000000000000000000000020000005533                                      
00010320210503202127284292346000284292340020931REYNA MARIELA TERESA       1284292340400000000000                           000000000040010000002000000000000000000000000000000000000000000000000000000000000000000000000000000000000000000000000000000000000000000000000000000000000000000000000000000000000000000000000000000000000000000000000000000000000000000000000000000000000000000000000000000000000000000000000000000000000000000000000000000000000000000000000000000000000000000000000000000000000000000000000000000000000000000000000000000000000000000000000000000000000000000101210000000000000000000000000000000000000000GOBIERNO DE LA PROVINCIA DE CORDOBA   MINISTERIO DE PROMOCION DEL EMPLEO Y EPROGRAMA VIDA DIGNA                   APODERADO DE                          REYNA MARIELA TERESA                                                                                                                                    100000000000000000000000000 000000000000000000000000000020000005533                                      
00010320210503202127338322246000338322240020931SUAREZ LORENA SOLEDAD      1338322240400000000000                           000000000040010000002000000000000000000000000000000000000000000000000000000000000000000000000000000000000000000000000000000000000000000000000000000000000000000000000000000000000000000000000000000000000000000000000000000000000000000000000000000000000000000000000000000000000000000000000000000000000000000000000000000000000000000000000000000000000000000000000000000000000000000000000000000000000000000000000000000000000000000000000000000000000000000101210000000000000000000000000000000000000000GOBIERNO DE LA PROVINCIA DE CORDOBA   MINISTERIO DE PROMOCION DEL EMPLEO Y EPROGRAMA VIDA DIGNA                   APODERADO DE                          SUAREZ LORENA SOLEDAD                                                                                                                                   100000000000000000000000000 000000000000000000000000000020000005533                                      
00010320210503202120257562434000257562430020931GUZMAN STELLA MARIS        1257562430400000000000                           000000000040010000002000000000000000000000000000000000000000000000000000000000000000000000000000000000000000000000000000000000000000000000000000000000000000000000000000000000000000000000000000000000000000000000000000000000000000000000000000000000000000000000000000000000000000000000000000000000000000000000000000000000000000000000000000000000000000000000000000000000000000000000000000000000000000000000000000000000000000000000000000000000000000000101210000000000000000000000000000000000000000GOBIERNO DE LA PROVINCIA DE CORDOBA   MINISTERIO DE PROMOCION DEL EMPLEO Y EPROGRAMA VIDA DIGNA                   APODERADO DE                          GUZMAN STELLA MARIS                                                                                                                                     100000000000000000000000000 000000000000000000000000000020000005533                                      
00010320210503202127256529411000256529410020931BUSTAMANTE MONICA BEATRIZ  1256529410400000000000                           000000000040010000002000000000000000000000000000000000000000000000000000000000000000000000000000000000000000000000000000000000000000000000000000000000000000000000000000000000000000000000000000000000000000000000000000000000000000000000000000000000000000000000000000000000000000000000000000000000000000000000000000000000000000000000000000000000000000000000000000000000000000000000000000000000000000000000000000000000000000000000000000000000000000000101210000000000000000000000000000000000000000GOBIERNO DE LA PROVINCIA DE CORDOBA   MINISTERIO DE PROMOCION DEL EMPLEO Y EPROGRAMA VIDA DIGNA                   APODERADO DE                          BUSTAMANTE MONICA BEATRIZ                                                                                                                               100000000000000000000000000 000000000000000000000000000020000005533                                      
00010320210503202127346717780000346717780020931CAMPOS PAMELA YANINA       1346717780400000000000                           000000000040010000002000000000000000000000000000000000000000000000000000000000000000000000000000000000000000000000000000000000000000000000000000000000000000000000000000000000000000000000000000000000000000000000000000000000000000000000000000000000000000000000000000000000000000000000000000000000000000000000000000000000000000000000000000000000000000000000000000000000000000000000000000000000000000000000000000000000000000000000000000000000000000000101210000000000000000000000000000000000000000GOBIERNO DE LA PROVINCIA DE CORDOBA   MINISTERIO DE PROMOCION DEL EMPLEO Y EPROGRAMA VIDA DIGNA                   APODERADO DE                          CAMPOS PAMELA YANINA                                                                                                                                    100000000000000000000000000 000000000000000000000000000020000005533                                      
00010320210503202127346718000000346718000020931CORTEZ MAIDA ELIZABETH     1346718000400000000000                           000000000040010000002000000000000000000000000000000000000000000000000000000000000000000000000000000000000000000000000000000000000000000000000000000000000000000000000000000000000000000000000000000000000000000000000000000000000000000000000000000000000000000000000000000000000000000000000000000000000000000000000000000000000000000000000000000000000000000000000000000000000000000000000000000000000000000000000000000000000000000000000000000000000000000101210000000000000000000000000000000000000000GOBIERNO DE LA PROVINCIA DE CORDOBA   MINISTERIO DE PROMOCION DEL EMPLEO Y EPROGRAMA VIDA DIGNA                   APODERADO DE                          CORTEZ MAIDA ELIZABETH                                                                                                                                  100000000000000000000000000 000000000000000000000000000020000005533                                      
00010320210503202127146330520000146330520020931GONZALEZ ELENA DEL VALLE   1146330520400000000000                           000000000040010000002000000000000000000000000000000000000000000000000000000000000000000000000000000000000000000000000000000000000000000000000000000000000000000000000000000000000000000000000000000000000000000000000000000000000000000000000000000000000000000000000000000000000000000000000000000000000000000000000000000000000000000000000000000000000000000000000000000000000000000000000000000000000000000000000000000000000000000000000000000000000000000101210000000000000000000000000000000000000000GOBIERNO DE LA PROVINCIA DE CORDOBA   MINISTERIO DE PROMOCION DEL EMPLEO Y EPROGRAMA VIDA DIGNA                   APODERADO DE                          GONZALEZ ELENA DEL VALLE                                                                                                                                100000000000000000000000000 000000000000000000000000000020000005533                                      
00010320210503202127357853600000357853600020931HERTHER DALLANA DESIREE    1357853600400000000000                           000000000040010000002000000000000000000000000000000000000000000000000000000000000000000000000000000000000000000000000000000000000000000000000000000000000000000000000000000000000000000000000000000000000000000000000000000000000000000000000000000000000000000000000000000000000000000000000000000000000000000000000000000000000000000000000000000000000000000000000000000000000000000000000000000000000000000000000000000000000000000000000000000000000000000101210000000000000000000000000000000000000000GOBIERNO DE LA PROVINCIA DE CORDOBA   MINISTERIO DE PROMOCION DEL EMPLEO Y EPROGRAMA VIDA DIGNA                   APODERADO DE                          HERTHER DALLANA DESIREE                                                                                                                                 100000000000000000000000000 000000000000000000000000000020000005533                                      
00010320210503202127142925260000142925260020931LOPEZ DELIA TERESITA       1142925260400000000000                           000000000040010000002000000000000000000000000000000000000000000000000000000000000000000000000000000000000000000000000000000000000000000000000000000000000000000000000000000000000000000000000000000000000000000000000000000000000000000000000000000000000000000000000000000000000000000000000000000000000000000000000000000000000000000000000000000000000000000000000000000000000000000000000000000000000000000000000000000000000000000000000000000000000000000101210000000000000000000000000000000000000000GOBIERNO DE LA PROVINCIA DE CORDOBA   MINISTERIO DE PROMOCION DEL EMPLEO Y EPROGRAMA VIDA DIGNA                   APODERADO DE                          LOPEZ DELIA TERESITA                                                                                                                                    100000000000000000000000000 000000000000000000000000000020000005533                                      
00010320210503202124381113953000381113950020931SALDA헲 HECTOR JAVIER      1381113950400000000000                           000000000040010000002000000000000000000000000000000000000000000000000000000000000000000000000000000000000000000000000000000000000000000000000000000000000000000000000000000000000000000000000000000000000000000000000000000000000000000000000000000000000000000000000000000000000000000000000000000000000000000000000000000000000000000000000000000000000000000000000000000000000000000000000000000000000000000000000000000000000000000000000000000000000000000101210000000000000000000000000000000000000000GOBIERNO DE LA PROVINCIA DE CORDOBA   MINISTERIO DE PROMOCION DEL EMPLEO Y EPROGRAMA VIDA DIGNA                   APODERADO DE                          SALDA헲 HECTOR JAVIER                                                                                                                                   100000000000000000000000000 000000000000000000000000000020000005533                                      
00010320210503202120123514948000123514940020931SARMIENTO CARLOS ALBERTO   1123514940400000000000                           000000000040010000002000000000000000000000000000000000000000000000000000000000000000000000000000000000000000000000000000000000000000000000000000000000000000000000000000000000000000000000000000000000000000000000000000000000000000000000000000000000000000000000000000000000000000000000000000000000000000000000000000000000000000000000000000000000000000000000000000000000000000000000000000000000000000000000000000000000000000000000000000000000000000000101210000000000000000000000000000000000000000GOBIERNO DE LA PROVINCIA DE CORDOBA   MINISTERIO DE PROMOCION DEL EMPLEO Y EPROGRAMA VIDA DIGNA                   APODERADO DE                          SARMIENTO CARLOS ALBERTO                                                                                                                                100000000000000000000000000 000000000000000000000000000020000005533                                      
00010320210503202127347875290000347875290020931BOZZETTO NANCY VANESA      1347875290400000000000                           000000000040010000002000000000000000000000000000000000000000000000000000000000000000000000000000000000000000000000000000000000000000000000000000000000000000000000000000000000000000000000000000000000000000000000000000000000000000000000000000000000000000000000000000000000000000000000000000000000000000000000000000000000000000000000000000000000000000000000000000000000000000000000000000000000000000000000000000000000000000000000000000000000000000000101210000000000000000000000000000000000000000GOBIERNO DE LA PROVINCIA DE CORDOBA   MINISTERIO DE PROMOCION DEL EMPLEO Y EPROGRAMA VIDA DIGNA                   APODERADO DE                          BOZZETTO NANCY VANESA                                                                                                                                   100000000000000000000000000 000000000000000000000000000020000005533                                      
00010320210503202127119497081000119497080020931CENA MARIA ESTELA          1119497080400000000000                           000000000040010000002000000000000000000000000000000000000000000000000000000000000000000000000000000000000000000000000000000000000000000000000000000000000000000000000000000000000000000000000000000000000000000000000000000000000000000000000000000000000000000000000000000000000000000000000000000000000000000000000000000000000000000000000000000000000000000000000000000000000000000000000000000000000000000000000000000000000000000000000000000000000000000101210000000000000000000000000000000000000000GOBIERNO DE LA PROVINCIA DE CORDOBA   MINISTERIO DE PROMOCION DEL EMPLEO Y EPROGRAMA VIDA DIGNA                   APODERADO DE                          CENA MARIA ESTELA                                                                                                                                       100000000000000000000000000 000000000000000000000000000020000005533                                      
00010320210503202127292380831000292380830020931MANSILLA PAOLA SOLEDAD     1292380830400000000000                           000000000040010000002000000000000000000000000000000000000000000000000000000000000000000000000000000000000000000000000000000000000000000000000000000000000000000000000000000000000000000000000000000000000000000000000000000000000000000000000000000000000000000000000000000000000000000000000000000000000000000000000000000000000000000000000000000000000000000000000000000000000000000000000000000000000000000000000000000000000000000000000000000000000000000101210000000000000000000000000000000000000000GOBIERNO DE LA PROVINCIA DE CORDOBA   MINISTERIO DE PROMOCION DEL EMPLEO Y EPROGRAMA VIDA DIGNA                   APODERADO DE                          MANSILLA PAOLA SOLEDAD                                                                                                                                  100000000000000000000000000 000000000000000000000000000020000005533                                      
00010320210503202127146408163000146408160020931MORALES GRACIELA DEL VALLE 1146408160400000000000                           000000000040010000002000000000000000000000000000000000000000000000000000000000000000000000000000000000000000000000000000000000000000000000000000000000000000000000000000000000000000000000000000000000000000000000000000000000000000000000000000000000000000000000000000000000000000000000000000000000000000000000000000000000000000000000000000000000000000000000000000000000000000000000000000000000000000000000000000000000000000000000000000000000000000000101210000000000000000000000000000000000000000GOBIERNO DE LA PROVINCIA DE CORDOBA   MINISTERIO DE PROMOCION DEL EMPLEO Y EPROGRAMA VIDA DIGNA                   APODERADO DE                          MORALES GRACIELA DEL VALLE                                                                                                                              100000000000000000000000000 000000000000000000000000000020000005533                                      
00010320210503202127227209653000227209650020931URQUIA MARIA KARINA        1227209650400000000000                           000000000040010000002000000000000000000000000000000000000000000000000000000000000000000000000000000000000000000000000000000000000000000000000000000000000000000000000000000000000000000000000000000000000000000000000000000000000000000000000000000000000000000000000000000000000000000000000000000000000000000000000000000000000000000000000000000000000000000000000000000000000000000000000000000000000000000000000000000000000000000000000000000000000000000101210000000000000000000000000000000000000000GOBIERNO DE LA PROVINCIA DE CORDOBA   MINISTERIO DE PROMOCION DEL EMPLEO Y EPROGRAMA VIDA DIGNA                   APODERADO DE                          URQUIA MARIA KARINA                                                                                                                                     100000000000000000000000000 000000000000000000000000000020000005533                                      
00010320210503202127371070147000371070140020931ACU헤 VANESSA YANINA       1371070140400000000000                           000000000040010000002000000000000000000000000000000000000000000000000000000000000000000000000000000000000000000000000000000000000000000000000000000000000000000000000000000000000000000000000000000000000000000000000000000000000000000000000000000000000000000000000000000000000000000000000000000000000000000000000000000000000000000000000000000000000000000000000000000000000000000000000000000000000000000000000000000000000000000000000000000000000000000101210000000000000000000000000000000000000000GOBIERNO DE LA PROVINCIA DE CORDOBA   MINISTERIO DE PROMOCION DEL EMPLEO Y EPROGRAMA VIDA DIGNA                   APODERADO DE                          ACU헤 VANESSA YANINA                                                                                                                                    100000000000000000000000000 000000000000000000000000000020000005533                                      
00010320210503202120259186537000259186530020931ALTAMIRANO CRISTIAN HUGO   1259186530400000000000                           000000000040010000002000000000000000000000000000000000000000000000000000000000000000000000000000000000000000000000000000000000000000000000000000000000000000000000000000000000000000000000000000000000000000000000000000000000000000000000000000000000000000000000000000000000000000000000000000000000000000000000000000000000000000000000000000000000000000000000000000000000000000000000000000000000000000000000000000000000000000000000000000000000000000000101210000000000000000000000000000000000000000GOBIERNO DE LA PROVINCIA DE CORDOBA   MINISTERIO DE PROMOCION DEL EMPLEO Y EPROGRAMA VIDA DIGNA                   APODERADO DE                          ALTAMIRANO CRISTIAN HUGO                                                                                                                                100000000000000000000000000 000000000000000000000000000020000005533                                      
00010320210503202120173392800000173392800020931ALVAREZ HUGO DOLORES       1173392800400000000000                           000000000040010000002000000000000000000000000000000000000000000000000000000000000000000000000000000000000000000000000000000000000000000000000000000000000000000000000000000000000000000000000000000000000000000000000000000000000000000000000000000000000000000000000000000000000000000000000000000000000000000000000000000000000000000000000000000000000000000000000000000000000000000000000000000000000000000000000000000000000000000000000000000000000000000101210000000000000000000000000000000000000000GOBIERNO DE LA PROVINCIA DE CORDOBA   MINISTERIO DE PROMOCION DEL EMPLEO Y EPROGRAMA VIDA DIGNA                   APODERADO DE                          ALVAREZ HUGO DOLORES                                                                                                                                    100000000000000000000000000 000000000000000000000000000020000005533                                      
00010320210503202123183769464000183769460020931AREVALO JOSEFINA ELENA     1183769460400000000000                           000000000040010000002000000000000000000000000000000000000000000000000000000000000000000000000000000000000000000000000000000000000000000000000000000000000000000000000000000000000000000000000000000000000000000000000000000000000000000000000000000000000000000000000000000000000000000000000000000000000000000000000000000000000000000000000000000000000000000000000000000000000000000000000000000000000000000000000000000000000000000000000000000000000000000101210000000000000000000000000000000000000000GOBIERNO DE LA PROVINCIA DE CORDOBA   MINISTERIO DE PROMOCION DEL EMPLEO Y EPROGRAMA VIDA DIGNA                   APODERADO DE                          AREVALO JOSEFINA ELENA                                                                                                                                  100000000000000000000000000 000000000000000000000000000020000005533                                      
00010320210503202127234409633000234409630020931BASSANO ADRIANA BEATRIZ    1234409630400000000000                           000000000040010000002000000000000000000000000000000000000000000000000000000000000000000000000000000000000000000000000000000000000000000000000000000000000000000000000000000000000000000000000000000000000000000000000000000000000000000000000000000000000000000000000000000000000000000000000000000000000000000000000000000000000000000000000000000000000000000000000000000000000000000000000000000000000000000000000000000000000000000000000000000000000000000101210000000000000000000000000000000000000000GOBIERNO DE LA PROVINCIA DE CORDOBA   MINISTERIO DE PROMOCION DEL EMPLEO Y EPROGRAMA VIDA DIGNA                   APODERADO DE                          BASSANO ADRIANA BEATRIZ                                                                                                                                 100000000000000000000000000 000000000000000000000000000020000005533                                      
00010320210503202127367760864000367760860020931BASUALDO NOELIA EMILCE     1367760860400000000000                           000000000040010000002000000000000000000000000000000000000000000000000000000000000000000000000000000000000000000000000000000000000000000000000000000000000000000000000000000000000000000000000000000000000000000000000000000000000000000000000000000000000000000000000000000000000000000000000000000000000000000000000000000000000000000000000000000000000000000000000000000000000000000000000000000000000000000000000000000000000000000000000000000000000000000101210000000000000000000000000000000000000000GOBIERNO DE LA PROVINCIA DE CORDOBA   MINISTERIO DE PROMOCION DEL EMPLEO Y EPROGRAMA VIDA DIGNA                   APODERADO DE                          BASUALDO NOELIA EMILCE                                                                                                                                  100000000000000000000000000 000000000000000000000000000020000005533                                      
00010320210503202127327853320000327853320020931BRAVO CECILIA GRACIELA     1327853320400000000000                           000000000040010000002000000000000000000000000000000000000000000000000000000000000000000000000000000000000000000000000000000000000000000000000000000000000000000000000000000000000000000000000000000000000000000000000000000000000000000000000000000000000000000000000000000000000000000000000000000000000000000000000000000000000000000000000000000000000000000000000000000000000000000000000000000000000000000000000000000000000000000000000000000000000000000101210000000000000000000000000000000000000000GOBIERNO DE LA PROVINCIA DE CORDOBA   MINISTERIO DE PROMOCION DEL EMPLEO Y EPROGRAMA VIDA DIGNA                   APODERADO DE                          BRAVO CECILIA GRACIELA                                                                                                                                  100000000000000000000000000 000000000000000000000000000020000005533                                      
00010320210503202127205435277000205435270020931CABRERA CRISTINA DEL CARMEN1205435270400000000000                           000000000040010000002000000000000000000000000000000000000000000000000000000000000000000000000000000000000000000000000000000000000000000000000000000000000000000000000000000000000000000000000000000000000000000000000000000000000000000000000000000000000000000000000000000000000000000000000000000000000000000000000000000000000000000000000000000000000000000000000000000000000000000000000000000000000000000000000000000000000000000000000000000000000000000101210000000000000000000000000000000000000000GOBIERNO DE LA PROVINCIA DE CORDOBA   MINISTERIO DE PROMOCION DEL EMPLEO Y EPROGRAMA VIDA DIGNA                   APODERADO DE                          CABRERA CRISTINA DEL CARMEN                                                                                                                             100000000000000000000000000 000000000000000000000000000020000005533                                      
00010320210503202120133746537000133746530020931CARRE헲 DANIEL ROBERTO     1133746530400000000000                           000000000040010000002000000000000000000000000000000000000000000000000000000000000000000000000000000000000000000000000000000000000000000000000000000000000000000000000000000000000000000000000000000000000000000000000000000000000000000000000000000000000000000000000000000000000000000000000000000000000000000000000000000000000000000000000000000000000000000000000000000000000000000000000000000000000000000000000000000000000000000000000000000000000000000101210000000000000000000000000000000000000000GOBIERNO DE LA PROVINCIA DE CORDOBA   MINISTERIO DE PROMOCION DEL EMPLEO Y EPROGRAMA VIDA DIGNA                   APODERADO DE                          CARRE헲 DANIEL ROBERTO                                                                                                                                  100000000000000000000000000 000000000000000000000000000020000005533                                      
00010320210503202127312779507000312779500020931DUARTE VANESA SOLEDAD      1312779500400000000000                           000000000040010000002000000000000000000000000000000000000000000000000000000000000000000000000000000000000000000000000000000000000000000000000000000000000000000000000000000000000000000000000000000000000000000000000000000000000000000000000000000000000000000000000000000000000000000000000000000000000000000000000000000000000000000000000000000000000000000000000000000000000000000000000000000000000000000000000000000000000000000000000000000000000000000101210000000000000000000000000000000000000000GOBIERNO DE LA PROVINCIA DE CORDOBA   MINISTERIO DE PROMOCION DEL EMPLEO Y EPROGRAMA VIDA DIGNA                   APODERADO DE                          DUARTE VANESA SOLEDAD                                                                                                                                   100000000000000000000000000 000000000000000000000000000020000005533                                      
00010320210503202127418464068000418464060020931FONTANELLAS MICAELA JENIFER1418464060400000000000                           000000000040010000002000000000000000000000000000000000000000000000000000000000000000000000000000000000000000000000000000000000000000000000000000000000000000000000000000000000000000000000000000000000000000000000000000000000000000000000000000000000000000000000000000000000000000000000000000000000000000000000000000000000000000000000000000000000000000000000000000000000000000000000000000000000000000000000000000000000000000000000000000000000000000000101210000000000000000000000000000000000000000GOBIERNO DE LA PROVINCIA DE CORDOBA   MINISTERIO DE PROMOCION DEL EMPLEO Y EPROGRAMA VIDA DIGNA                   APODERADO DE                          FONTANELLAS MICAELA JENIFER                                                                                                                             100000000000000000000000000 000000000000000000000000000020000005533                                      
00010320210503202123337002854000337002850020931GARAY JESICA SOLEDAD       1337002850400000000000                           000000000040010000002000000000000000000000000000000000000000000000000000000000000000000000000000000000000000000000000000000000000000000000000000000000000000000000000000000000000000000000000000000000000000000000000000000000000000000000000000000000000000000000000000000000000000000000000000000000000000000000000000000000000000000000000000000000000000000000000000000000000000000000000000000000000000000000000000000000000000000000000000000000000000000101210000000000000000000000000000000000000000GOBIERNO DE LA PROVINCIA DE CORDOBA   MINISTERIO DE PROMOCION DEL EMPLEO Y EPROGRAMA VIDA DIGNA                   APODERADO DE                          GARAY JESICA SOLEDAD                                                                                                                                    100000000000000000000000000 000000000000000000000000000020000005533                                      
00010320210503202123286529429000286529420020931GARAY JORGE DAMIAN         1286529420400000000000                           000000000040010000002000000000000000000000000000000000000000000000000000000000000000000000000000000000000000000000000000000000000000000000000000000000000000000000000000000000000000000000000000000000000000000000000000000000000000000000000000000000000000000000000000000000000000000000000000000000000000000000000000000000000000000000000000000000000000000000000000000000000000000000000000000000000000000000000000000000000000000000000000000000000000000101210000000000000000000000000000000000000000GOBIERNO DE LA PROVINCIA DE CORDOBA   MINISTERIO DE PROMOCION DEL EMPLEO Y EPROGRAMA VIDA DIGNA                   APODERADO DE                          GARAY JORGE DAMIAN                                                                                                                                      100000000000000000000000000 000000000000000000000000000020000005533                                      
00010320210503202127279567022000279567020020931HERRERA ELVIRA JACINTA     1279567020400000000000                           000000000040010000002000000000000000000000000000000000000000000000000000000000000000000000000000000000000000000000000000000000000000000000000000000000000000000000000000000000000000000000000000000000000000000000000000000000000000000000000000000000000000000000000000000000000000000000000000000000000000000000000000000000000000000000000000000000000000000000000000000000000000000000000000000000000000000000000000000000000000000000000000000000000000000101210000000000000000000000000000000000000000GOBIERNO DE LA PROVINCIA DE CORDOBA   MINISTERIO DE PROMOCION DEL EMPLEO Y EPROGRAMA VIDA DIGNA                   APODERADO DE                          HERRERA ELVIRA JACINTA                                                                                                                                  100000000000000000000000000 000000000000000000000000000020000005533                                      
00010320210503202127386448030000386448030020931HERRERA SOLANGE REBECA     1386448030400000000000                           000000000040010000002000000000000000000000000000000000000000000000000000000000000000000000000000000000000000000000000000000000000000000000000000000000000000000000000000000000000000000000000000000000000000000000000000000000000000000000000000000000000000000000000000000000000000000000000000000000000000000000000000000000000000000000000000000000000000000000000000000000000000000000000000000000000000000000000000000000000000000000000000000000000000000101210000000000000000000000000000000000000000GOBIERNO DE LA PROVINCIA DE CORDOBA   MINISTERIO DE PROMOCION DEL EMPLEO Y EPROGRAMA VIDA DIGNA                   APODERADO DE                          HERRERA SOLANGE REBECA                                                                                                                                  100000000000000000000000000 000000000000000000000000000020000005533                                      
00010320210503202127381807555000381807550020931HERRERA YAMILA NADIA       1381807550400000000000                           000000000040010000002000000000000000000000000000000000000000000000000000000000000000000000000000000000000000000000000000000000000000000000000000000000000000000000000000000000000000000000000000000000000000000000000000000000000000000000000000000000000000000000000000000000000000000000000000000000000000000000000000000000000000000000000000000000000000000000000000000000000000000000000000000000000000000000000000000000000000000000000000000000000000000101210000000000000000000000000000000000000000GOBIERNO DE LA PROVINCIA DE CORDOBA   MINISTERIO DE PROMOCION DEL EMPLEO Y EPROGRAMA VIDA DIGNA                   APODERADO DE                          HERRERA YAMILA NADIA                                                                                                                                    100000000000000000000000000 000000000000000000000000000020000005533                                      
00010320210503202127171568450000171568450020931IBARRA EVES SUSANA         1171568450400000000000                           000000000040010000002000000000000000000000000000000000000000000000000000000000000000000000000000000000000000000000000000000000000000000000000000000000000000000000000000000000000000000000000000000000000000000000000000000000000000000000000000000000000000000000000000000000000000000000000000000000000000000000000000000000000000000000000000000000000000000000000000000000000000000000000000000000000000000000000000000000000000000000000000000000000000000101210000000000000000000000000000000000000000GOBIERNO DE LA PROVINCIA DE CORDOBA   MINISTERIO DE PROMOCION DEL EMPLEO Y EPROGRAMA VIDA DIGNA                   APODERADO DE                          IBARRA EVES SUSANA                                                                                                                                      100000000000000000000000000 000000000000000000000000000020000005533                                      
00010320210503202120119497079000119497070020931LEDESMA EDUARDO RUBEN      1119497070400000000000                           000000000040010000002000000000000000000000000000000000000000000000000000000000000000000000000000000000000000000000000000000000000000000000000000000000000000000000000000000000000000000000000000000000000000000000000000000000000000000000000000000000000000000000000000000000000000000000000000000000000000000000000000000000000000000000000000000000000000000000000000000000000000000000000000000000000000000000000000000000000000000000000000000000000000000101210000000000000000000000000000000000000000GOBIERNO DE LA PROVINCIA DE CORDOBA   MINISTERIO DE PROMOCION DEL EMPLEO Y EPROGRAMA VIDA DIGNA                   APODERADO DE                          LEDESMA EDUARDO RUBEN                                                                                                                                   100000000000000000000000000 000000000000000000000000000020000005533                                      
00010320210503202127343172546000343172540020931LEDESMA ERICA ALEXANDRA    1343172540400000000000                           000000000040010000002000000000000000000000000000000000000000000000000000000000000000000000000000000000000000000000000000000000000000000000000000000000000000000000000000000000000000000000000000000000000000000000000000000000000000000000000000000000000000000000000000000000000000000000000000000000000000000000000000000000000000000000000000000000000000000000000000000000000000000000000000000000000000000000000000000000000000000000000000000000000000000101210000000000000000000000000000000000000000GOBIERNO DE LA PROVINCIA DE CORDOBA   MINISTERIO DE PROMOCION DEL EMPLEO Y EPROGRAMA VIDA DIGNA                   APODERADO DE                          LEDESMA ERICA ALEXANDRA                                                                                                                                 100000000000000000000000000 000000000000000000000000000020000005533                                      
00010320210503202127367962491000367962490020931LESCANO CECILIA ALESANDRA  1367962490400000000000                           000000000040010000002000000000000000000000000000000000000000000000000000000000000000000000000000000000000000000000000000000000000000000000000000000000000000000000000000000000000000000000000000000000000000000000000000000000000000000000000000000000000000000000000000000000000000000000000000000000000000000000000000000000000000000000000000000000000000000000000000000000000000000000000000000000000000000000000000000000000000000000000000000000000000000101210000000000000000000000000000000000000000GOBIERNO DE LA PROVINCIA DE CORDOBA   MINISTERIO DE PROMOCION DEL EMPLEO Y EPROGRAMA VIDA DIGNA                   APODERADO DE                          LESCANO CECILIA ALESANDRA                                                                                                                               100000000000000000000000000 000000000000000000000000000020000005533                                      
00010320210503202127203801179000203801170020931LEYRIA MARIA JOSE          1203801170400000000000                           000000000040010000002000000000000000000000000000000000000000000000000000000000000000000000000000000000000000000000000000000000000000000000000000000000000000000000000000000000000000000000000000000000000000000000000000000000000000000000000000000000000000000000000000000000000000000000000000000000000000000000000000000000000000000000000000000000000000000000000000000000000000000000000000000000000000000000000000000000000000000000000000000000000000000101210000000000000000000000000000000000000000GOBIERNO DE LA PROVINCIA DE CORDOBA   MINISTERIO DE PROMOCION DEL EMPLEO Y EPROGRAMA VIDA DIGNA                   APODERADO DE                          LEYRIA MARIA JOSE                                                                                                                                       100000000000000000000000000 000000000000000000000000000020000005533                                      
00010320210503202127331012357000331012350020931LLANOS NORMA ANDREA        1331012350400000000000                           000000000040010000002000000000000000000000000000000000000000000000000000000000000000000000000000000000000000000000000000000000000000000000000000000000000000000000000000000000000000000000000000000000000000000000000000000000000000000000000000000000000000000000000000000000000000000000000000000000000000000000000000000000000000000000000000000000000000000000000000000000000000000000000000000000000000000000000000000000000000000000000000000000000000000101210000000000000000000000000000000000000000GOBIERNO DE LA PROVINCIA DE CORDOBA   MINISTERIO DE PROMOCION DEL EMPLEO Y EPROGRAMA VIDA DIGNA                   APODERADO DE                          LLANOS NORMA ANDREA                                                                                                                                     100000000000000000000000000 000000000000000000000000000020000005533                                      
00010320210503202127303012546000303012540020931LOPEZ MARINA ESPERANZA     1303012540400000000000                           000000000040010000002000000000000000000000000000000000000000000000000000000000000000000000000000000000000000000000000000000000000000000000000000000000000000000000000000000000000000000000000000000000000000000000000000000000000000000000000000000000000000000000000000000000000000000000000000000000000000000000000000000000000000000000000000000000000000000000000000000000000000000000000000000000000000000000000000000000000000000000000000000000000000000101210000000000000000000000000000000000000000GOBIERNO DE LA PROVINCIA DE CORDOBA   MINISTERIO DE PROMOCION DEL EMPLEO Y EPROGRAMA VIDA DIGNA                   APODERADO DE                          LOPEZ MARINA ESPERANZA                                                                                                                                  100000000000000000000000000 000000000000000000000000000020000005533                                      
00010320210503202120310076652000310076650020931LOPEZ NERY FERNANDO        1310076650400000000000                           000000000040010000002000000000000000000000000000000000000000000000000000000000000000000000000000000000000000000000000000000000000000000000000000000000000000000000000000000000000000000000000000000000000000000000000000000000000000000000000000000000000000000000000000000000000000000000000000000000000000000000000000000000000000000000000000000000000000000000000000000000000000000000000000000000000000000000000000000000000000000000000000000000000000000101210000000000000000000000000000000000000000GOBIERNO DE LA PROVINCIA DE CORDOBA   MINISTERIO DE PROMOCION DEL EMPLEO Y EPROGRAMA VIDA DIGNA                   APODERADO DE                          LOPEZ NERY FERNANDO                                                                                                                                     100000000000000000000000000 000000000000000000000000000020000005533                                      
00010320210503202127332706522000332706520020931MALDONADO LORENA FERNANDA  1332706520400000000000                           000000000040010000002000000000000000000000000000000000000000000000000000000000000000000000000000000000000000000000000000000000000000000000000000000000000000000000000000000000000000000000000000000000000000000000000000000000000000000000000000000000000000000000000000000000000000000000000000000000000000000000000000000000000000000000000000000000000000000000000000000000000000000000000000000000000000000000000000000000000000000000000000000000000000000101210000000000000000000000000000000000000000GOBIERNO DE LA PROVINCIA DE CORDOBA   MINISTERIO DE PROMOCION DEL EMPLEO Y EPROGRAMA VIDA DIGNA                   APODERADO DE                          MALDONADO LORENA FERNANDA                                                                                                                               100000000000000000000000000 000000000000000000000000000020000005533                                      
00010320210503202120249927741000249927740020931MARTINEZ MIGUEL IGNACIO    1249927740400000000000                           000000000040010000002000000000000000000000000000000000000000000000000000000000000000000000000000000000000000000000000000000000000000000000000000000000000000000000000000000000000000000000000000000000000000000000000000000000000000000000000000000000000000000000000000000000000000000000000000000000000000000000000000000000000000000000000000000000000000000000000000000000000000000000000000000000000000000000000000000000000000000000000000000000000000000101210000000000000000000000000000000000000000GOBIERNO DE LA PROVINCIA DE CORDOBA   MINISTERIO DE PROMOCION DEL EMPLEO Y EPROGRAMA VIDA DIGNA                   APODERADO DE                          MARTINEZ MIGUEL IGNACIO                                                                                                                                 100000000000000000000000000 000000000000000000000000000020000005533                                      
00010320210503202127258587700000258587700020931MARTINEZ SERGIO RAUL       1258587700400000000000                           000000000040010000002000000000000000000000000000000000000000000000000000000000000000000000000000000000000000000000000000000000000000000000000000000000000000000000000000000000000000000000000000000000000000000000000000000000000000000000000000000000000000000000000000000000000000000000000000000000000000000000000000000000000000000000000000000000000000000000000000000000000000000000000000000000000000000000000000000000000000000000000000000000000000000101210000000000000000000000000000000000000000GOBIERNO DE LA PROVINCIA DE CORDOBA   MINISTERIO DE PROMOCION DEL EMPLEO Y EPROGRAMA VIDA DIGNA                   APODERADO DE                          MARTINEZ SERGIO RAUL                                                                                                                                    100000000000000000000000000 000000000000000000000000000020000005533                                      
00010320210503202123216659554000216659550020931MIRABAL GRACIELA DEL VALLE 1216659550400000000000                           000000000040010000002000000000000000000000000000000000000000000000000000000000000000000000000000000000000000000000000000000000000000000000000000000000000000000000000000000000000000000000000000000000000000000000000000000000000000000000000000000000000000000000000000000000000000000000000000000000000000000000000000000000000000000000000000000000000000000000000000000000000000000000000000000000000000000000000000000000000000000000000000000000000000000101210000000000000000000000000000000000000000GOBIERNO DE LA PROVINCIA DE CORDOBA   MINISTERIO DE PROMOCION DEL EMPLEO Y EPROGRAMA VIDA DIGNA                   APODERADO DE                          MIRABAL GRACIELA DEL VALLE                                                                                                                              100000000000000000000000000 000000000000000000000000000020000005533                                      
00010320210503202127368554818000368554810020931MONJE ROMINA SOLEDAD       1368554810400000000000                           000000000040010000002000000000000000000000000000000000000000000000000000000000000000000000000000000000000000000000000000000000000000000000000000000000000000000000000000000000000000000000000000000000000000000000000000000000000000000000000000000000000000000000000000000000000000000000000000000000000000000000000000000000000000000000000000000000000000000000000000000000000000000000000000000000000000000000000000000000000000000000000000000000000000000101210000000000000000000000000000000000000000GOBIERNO DE LA PROVINCIA DE CORDOBA   MINISTERIO DE PROMOCION DEL EMPLEO Y EPROGRAMA VIDA DIGNA                   APODERADO DE                          MONJE ROMINA SOLEDAD                                                                                                                                    100000000000000000000000000 000000000000000000000000000020000005533                                      
00010320210503202120394211401000394211400020931ORONA CRISTIAN GABRIEL     1394211400400000000000                           000000000040010000002000000000000000000000000000000000000000000000000000000000000000000000000000000000000000000000000000000000000000000000000000000000000000000000000000000000000000000000000000000000000000000000000000000000000000000000000000000000000000000000000000000000000000000000000000000000000000000000000000000000000000000000000000000000000000000000000000000000000000000000000000000000000000000000000000000000000000000000000000000000000000000101210000000000000000000000000000000000000000GOBIERNO DE LA PROVINCIA DE CORDOBA   MINISTERIO DE PROMOCION DEL EMPLEO Y EPROGRAMA VIDA DIGNA                   APODERADO DE                          ORONA CRISTIAN GABRIEL                                                                                                                                  100000000000000000000000000 000000000000000000000000000020000005533                                      
00010320210503202127019611898000019611890020931PAEZ FRANCISCA ELVA        1019611890400000000000                           000000000040010000002000000000000000000000000000000000000000000000000000000000000000000000000000000000000000000000000000000000000000000000000000000000000000000000000000000000000000000000000000000000000000000000000000000000000000000000000000000000000000000000000000000000000000000000000000000000000000000000000000000000000000000000000000000000000000000000000000000000000000000000000000000000000000000000000000000000000000000000000000000000000000000101210000000000000000000000000000000000000000GOBIERNO DE LA PROVINCIA DE CORDOBA   MINISTERIO DE PROMOCION DEL EMPLEO Y EPROGRAMA VIDA DIGNA                   APODERADO DE                          PAEZ FRANCISCA ELVA                                                                                                                                     100000000000000000000000000 000000000000000000000000000020000005533                                      
00010320210503202127134001645000134001640020931RIOS MARIA AMALIA          1134001640400000000000                           000000000040010000002000000000000000000000000000000000000000000000000000000000000000000000000000000000000000000000000000000000000000000000000000000000000000000000000000000000000000000000000000000000000000000000000000000000000000000000000000000000000000000000000000000000000000000000000000000000000000000000000000000000000000000000000000000000000000000000000000000000000000000000000000000000000000000000000000000000000000000000000000000000000000000101210000000000000000000000000000000000000000GOBIERNO DE LA PROVINCIA DE CORDOBA   MINISTERIO DE PROMOCION DEL EMPLEO Y EPROGRAMA VIDA DIGNA                   APODERADO DE                          RIOS MARIA AMALIA                                                                                                                                       100000000000000000000000000 000000000000000000000000000020000005533                                      
00010320210503202127238241826000238241820020931SANCHEZ CARMEN VERONICA    1238241820400000000000                           000000000040010000002000000000000000000000000000000000000000000000000000000000000000000000000000000000000000000000000000000000000000000000000000000000000000000000000000000000000000000000000000000000000000000000000000000000000000000000000000000000000000000000000000000000000000000000000000000000000000000000000000000000000000000000000000000000000000000000000000000000000000000000000000000000000000000000000000000000000000000000000000000000000000000101210000000000000000000000000000000000000000GOBIERNO DE LA PROVINCIA DE CORDOBA   MINISTERIO DE PROMOCION DEL EMPLEO Y EPROGRAMA VIDA DIGNA                   APODERADO DE                          SANCHEZ CARMEN VERONICA                                                                                                                                 100000000000000000000000000 000000000000000000000000000020000005533                                      
00010320210503202127301120120000301120120020931SUAREZ VERONICA DEL VALLE  1301120120400000000000                           000000000040010000002000000000000000000000000000000000000000000000000000000000000000000000000000000000000000000000000000000000000000000000000000000000000000000000000000000000000000000000000000000000000000000000000000000000000000000000000000000000000000000000000000000000000000000000000000000000000000000000000000000000000000000000000000000000000000000000000000000000000000000000000000000000000000000000000000000000000000000000000000000000000000000101210000000000000000000000000000000000000000GOBIERNO DE LA PROVINCIA DE CORDOBA   MINISTERIO DE PROMOCION DEL EMPLEO Y EPROGRAMA VIDA DIGNA                   APODERADO DE                          SUAREZ VERONICA DEL VALLE                                                                                                                               100000000000000000000000000 000000000000000000000000000020000005533                                      
00010320210503202123280252034000280252030020931TORRES RAMONA DEL VALLE    1280252030400000000000                           000000000040010000002000000000000000000000000000000000000000000000000000000000000000000000000000000000000000000000000000000000000000000000000000000000000000000000000000000000000000000000000000000000000000000000000000000000000000000000000000000000000000000000000000000000000000000000000000000000000000000000000000000000000000000000000000000000000000000000000000000000000000000000000000000000000000000000000000000000000000000000000000000000000000000101210000000000000000000000000000000000000000GOBIERNO DE LA PROVINCIA DE CORDOBA   MINISTERIO DE PROMOCION DEL EMPLEO Y EPROGRAMA VIDA DIGNA                   APODERADO DE                          TORRES RAMONA DEL VALLE                                                                                                                                 100000000000000000000000000 000000000000000000000000000020000005533                                      
00010320210503202120304999080000304999080020931VILLADA DIEGO SEBASTIAN    1304999080400000000000                           000000000040010000002000000000000000000000000000000000000000000000000000000000000000000000000000000000000000000000000000000000000000000000000000000000000000000000000000000000000000000000000000000000000000000000000000000000000000000000000000000000000000000000000000000000000000000000000000000000000000000000000000000000000000000000000000000000000000000000000000000000000000000000000000000000000000000000000000000000000000000000000000000000000000000101210000000000000000000000000000000000000000GOBIERNO DE LA PROVINCIA DE CORDOBA   MINISTERIO DE PROMOCION DEL EMPLEO Y EPROGRAMA VIDA DIGNA                   APODERADO DE                          VILLADA DIEGO SEBASTIAN                                                                                                                                 100000000000000000000000000 000000000000000000000000000020000005533                                      
00010320210503202123248412704000248412700020931ABALLAY SONIA SILVANA      1248412700400000000000                           000000000040010000002000000000000000000000000000000000000000000000000000000000000000000000000000000000000000000000000000000000000000000000000000000000000000000000000000000000000000000000000000000000000000000000000000000000000000000000000000000000000000000000000000000000000000000000000000000000000000000000000000000000000000000000000000000000000000000000000000000000000000000000000000000000000000000000000000000000000000000000000000000000000000000101210000000000000000000000000000000000000000GOBIERNO DE LA PROVINCIA DE CORDOBA   MINISTERIO DE PROMOCION DEL EMPLEO Y EPROGRAMA VIDA DIGNA                   APODERADO DE                          ABALLAY SONIA SILVANA                                                                                                                                   100000000000000000000000000 000000000000000000000000000020000005533                                      
00010320210503202120234606949000234606940020931AVENDA헲 JOSE MARIA        1234606940400000000000                           000000000040010000002000000000000000000000000000000000000000000000000000000000000000000000000000000000000000000000000000000000000000000000000000000000000000000000000000000000000000000000000000000000000000000000000000000000000000000000000000000000000000000000000000000000000000000000000000000000000000000000000000000000000000000000000000000000000000000000000000000000000000000000000000000000000000000000000000000000000000000000000000000000000000000101210000000000000000000000000000000000000000GOBIERNO DE LA PROVINCIA DE CORDOBA   MINISTERIO DE PROMOCION DEL EMPLEO Y EPROGRAMA VIDA DIGNA                   APODERADO DE                          AVENDA헲 JOSE MARIA                                                                                                                                     100000000000000000000000000 000000000000000000000000000020000005533                                      
00010320210503202127250819620000250819620020931AVENDA헲 PAOLA ALEJANDRA   1250819620400000000000                           000000000040010000002000000000000000000000000000000000000000000000000000000000000000000000000000000000000000000000000000000000000000000000000000000000000000000000000000000000000000000000000000000000000000000000000000000000000000000000000000000000000000000000000000000000000000000000000000000000000000000000000000000000000000000000000000000000000000000000000000000000000000000000000000000000000000000000000000000000000000000000000000000000000000000101210000000000000000000000000000000000000000GOBIERNO DE LA PROVINCIA DE CORDOBA   MINISTERIO DE PROMOCION DEL EMPLEO Y EPROGRAMA VIDA DIGNA                   APODERADO DE                          AVENDA헲 PAOLA ALEJANDRA                                                                                                                                100000000000000000000000000 000000000000000000000000000020000005533                                      
00010320210503202127404159203000404159200020931BORGOBELLO GUADALUPE DEL VA1404159200400000000000                           000000000040010000002000000000000000000000000000000000000000000000000000000000000000000000000000000000000000000000000000000000000000000000000000000000000000000000000000000000000000000000000000000000000000000000000000000000000000000000000000000000000000000000000000000000000000000000000000000000000000000000000000000000000000000000000000000000000000000000000000000000000000000000000000000000000000000000000000000000000000000000000000000000000000000101210000000000000000000000000000000000000000GOBIERNO DE LA PROVINCIA DE CORDOBA   MINISTERIO DE PROMOCION DEL EMPLEO Y EPROGRAMA VIDA DIGNA                   APODERADO DE                          BORGOBELLO GUADALUPE DEL VALLE                                                                                                                          100000000000000000000000000 000000000000000000000000000020000005533                                      
00010320210503202120079543897000079543890020931BRACAMONTE JOSE TORIVIO    1079543890400000000000                           000000000040010000002000000000000000000000000000000000000000000000000000000000000000000000000000000000000000000000000000000000000000000000000000000000000000000000000000000000000000000000000000000000000000000000000000000000000000000000000000000000000000000000000000000000000000000000000000000000000000000000000000000000000000000000000000000000000000000000000000000000000000000000000000000000000000000000000000000000000000000000000000000000000000000101210000000000000000000000000000000000000000GOBIERNO DE LA PROVINCIA DE CORDOBA   MINISTERIO DE PROMOCION DEL EMPLEO Y EPROGRAMA VIDA DIGNA                   APODERADO DE                          BRACAMONTE JOSE TORIVIO                                                                                                                                 100000000000000000000000000 000000000000000000000000000020000005533                                      
00010320210503202127238234684000238234680020931BUSTOS MIRYAM ELIZABETH    1238234680400000000000                           000000000040010000001500000000000000000000000000000000000000000000000000000000000000000000000000000000000000000000000000000000000000000000000000000000000000000000000000000000000000000000000000000000000000000000000000000000000000000000000000000000000000000000000000000000000000000000000000000000000000000000000000000000000000000000000000000000000000000000000000000000000000000000000000000000000000000000000000000000000000000000000000000000000000000101210000000000000000000000000000000000000000GOBIERNO DE LA PROVINCIA DE CORDOBA   MINISTERIO DE PROMOCION DEL EMPLEO Y EPROGRAMA VIDA DIGNA                   APODERADO DE                          BUSTOS MIRYAM ELIZABETH                                                                                                                                 100000000000000000000000000 000000000000000000000000000015000005533                                      
00010320210503202127165016144000165016140020931CASTILLO ADRIANA EDITH     1165016140400000000000                           000000000040010000002000000000000000000000000000000000000000000000000000000000000000000000000000000000000000000000000000000000000000000000000000000000000000000000000000000000000000000000000000000000000000000000000000000000000000000000000000000000000000000000000000000000000000000000000000000000000000000000000000000000000000000000000000000000000000000000000000000000000000000000000000000000000000000000000000000000000000000000000000000000000000000101210000000000000000000000000000000000000000GOBIERNO DE LA PROVINCIA DE CORDOBA   MINISTERIO DE PROMOCION DEL EMPLEO Y EPROGRAMA VIDA DIGNA                   APODERADO DE                          CASTILLO ADRIANA EDITH                                                                                                                                  100000000000000000000000000 000000000000000000000000000020000005533                                      
00010320210503202127062041043000062041040020931CORDOBA MARTA LIDIA        1062041040400000000000                           000000000040010000002000000000000000000000000000000000000000000000000000000000000000000000000000000000000000000000000000000000000000000000000000000000000000000000000000000000000000000000000000000000000000000000000000000000000000000000000000000000000000000000000000000000000000000000000000000000000000000000000000000000000000000000000000000000000000000000000000000000000000000000000000000000000000000000000000000000000000000000000000000000000000000101210000000000000000000000000000000000000000GOBIERNO DE LA PROVINCIA DE CORDOBA   MINISTERIO DE PROMOCION DEL EMPLEO Y EPROGRAMA VIDA DIGNA                   APODERADO DE                          CORDOBA MARTA LIDIA                                                                                                                                     100000000000000000000000000 000000000000000000000000000020000005533                                      
00010320210503202127425129355000425129350020931CORTEZ ZAIRA VIVIANA       1425129350400000000000                           000000000040010000002000000000000000000000000000000000000000000000000000000000000000000000000000000000000000000000000000000000000000000000000000000000000000000000000000000000000000000000000000000000000000000000000000000000000000000000000000000000000000000000000000000000000000000000000000000000000000000000000000000000000000000000000000000000000000000000000000000000000000000000000000000000000000000000000000000000000000000000000000000000000000000101210000000000000000000000000000000000000000GOBIERNO DE LA PROVINCIA DE CORDOBA   MINISTERIO DE PROMOCION DEL EMPLEO Y EPROGRAMA VIDA DIGNA                   APODERADO DE                          CORTEZ ZAIRA VIVIANA                                                                                                                                    100000000000000000000000000 000000000000000000000000000020000005533                                      
00010320210503202120111879142000111879140020931DEL LLANO DANIEL JOS      1111879140400000000000                           000000000040010000002000000000000000000000000000000000000000000000000000000000000000000000000000000000000000000000000000000000000000000000000000000000000000000000000000000000000000000000000000000000000000000000000000000000000000000000000000000000000000000000000000000000000000000000000000000000000000000000000000000000000000000000000000000000000000000000000000000000000000000000000000000000000000000000000000000000000000000000000000000000000000000101210000000000000000000000000000000000000000GOBIERNO DE LA PROVINCIA DE CORDOBA   MINISTERIO DE PROMOCION DEL EMPLEO Y EPROGRAMA VIDA DIGNA                   APODERADO DE                          DEL LLANO DANIEL JOS                                                                                                                                   100000000000000000000000000 000000000000000000000000000020000005533                                      
00010320210503202127296780036000296780030020931GARAY PAOLA DEL VALLE      1296780030400000000000                           000000000040010000001500000000000000000000000000000000000000000000000000000000000000000000000000000000000000000000000000000000000000000000000000000000000000000000000000000000000000000000000000000000000000000000000000000000000000000000000000000000000000000000000000000000000000000000000000000000000000000000000000000000000000000000000000000000000000000000000000000000000000000000000000000000000000000000000000000000000000000000000000000000000000000101210000000000000000000000000000000000000000GOBIERNO DE LA PROVINCIA DE CORDOBA   MINISTERIO DE PROMOCION DEL EMPLEO Y EPROGRAMA VIDA DIGNA                   APODERADO DE                          GARAY PAOLA DEL VALLE                                                                                                                                   100000000000000000000000000 000000000000000000000000000015000005533                                      
00010320210503202127394047487000394047480020931GODOY CYNTHIA VICTORIA     1394047480400000000000                           000000000040010000002000000000000000000000000000000000000000000000000000000000000000000000000000000000000000000000000000000000000000000000000000000000000000000000000000000000000000000000000000000000000000000000000000000000000000000000000000000000000000000000000000000000000000000000000000000000000000000000000000000000000000000000000000000000000000000000000000000000000000000000000000000000000000000000000000000000000000000000000000000000000000000101210000000000000000000000000000000000000000GOBIERNO DE LA PROVINCIA DE CORDOBA   MINISTERIO DE PROMOCION DEL EMPLEO Y EPROGRAMA VIDA DIGNA                   APODERADO DE                          GODOY CYNTHIA VICTORIA                                                                                                                                  100000000000000000000000000 000000000000000000000000000020000005533                                      
00010320210503202127328758089000328758080020931MATASSINI BETANIA YANINA   1328758080400000000000                           000000000040010000002000000000000000000000000000000000000000000000000000000000000000000000000000000000000000000000000000000000000000000000000000000000000000000000000000000000000000000000000000000000000000000000000000000000000000000000000000000000000000000000000000000000000000000000000000000000000000000000000000000000000000000000000000000000000000000000000000000000000000000000000000000000000000000000000000000000000000000000000000000000000000000101210000000000000000000000000000000000000000GOBIERNO DE LA PROVINCIA DE CORDOBA   MINISTERIO DE PROMOCION DEL EMPLEO Y EPROGRAMA VIDA DIGNA                   APODERADO DE                          MATASSINI BETANIA YANINA                                                                                                                                100000000000000000000000000 000000000000000000000000000020000005533                                      
00010320210503202123264393574000264393570020931MORENO MARIA JOSE          1264393570400000000000                           000000000040010000001500000000000000000000000000000000000000000000000000000000000000000000000000000000000000000000000000000000000000000000000000000000000000000000000000000000000000000000000000000000000000000000000000000000000000000000000000000000000000000000000000000000000000000000000000000000000000000000000000000000000000000000000000000000000000000000000000000000000000000000000000000000000000000000000000000000000000000000000000000000000000000101210000000000000000000000000000000000000000GOBIERNO DE LA PROVINCIA DE CORDOBA   MINISTERIO DE PROMOCION DEL EMPLEO Y EPROGRAMA VIDA DIGNA                   APODERADO DE                          MORENO MARIA JOSE                                                                                                                                       100000000000000000000000000 000000000000000000000000000015000005533                                      
00010320210503202120391746568000391746560020931NU헨Z NOEL NAHUEL          1391746560400000000000                           000000000040010000002000000000000000000000000000000000000000000000000000000000000000000000000000000000000000000000000000000000000000000000000000000000000000000000000000000000000000000000000000000000000000000000000000000000000000000000000000000000000000000000000000000000000000000000000000000000000000000000000000000000000000000000000000000000000000000000000000000000000000000000000000000000000000000000000000000000000000000000000000000000000000000101210000000000000000000000000000000000000000GOBIERNO DE LA PROVINCIA DE CORDOBA   MINISTERIO DE PROMOCION DEL EMPLEO Y EPROGRAMA VIDA DIGNA                   APODERADO DE                          NU헨Z NOEL NAHUEL                                                                                                                                       100000000000000000000000000 000000000000000000000000000020000005533                                      
00010320210503202127036138446000036138440020931PIEDRA BERTA GRIPINA       1036138440400000000000                           000000000040010000002000000000000000000000000000000000000000000000000000000000000000000000000000000000000000000000000000000000000000000000000000000000000000000000000000000000000000000000000000000000000000000000000000000000000000000000000000000000000000000000000000000000000000000000000000000000000000000000000000000000000000000000000000000000000000000000000000000000000000000000000000000000000000000000000000000000000000000000000000000000000000000101210000000000000000000000000000000000000000GOBIERNO DE LA PROVINCIA DE CORDOBA   MINISTERIO DE PROMOCION DEL EMPLEO Y EPROGRAMA VIDA DIGNA                   APODERADO DE                          PIEDRA BERTA GRIPINA                                                                                                                                    100000000000000000000000000 000000000000000000000000000020000005533                                      
00010320210503202127294236983000294236980020931PINTO RAQUEL SOLEDAD       1294236980400000000000                           000000000040010000002000000000000000000000000000000000000000000000000000000000000000000000000000000000000000000000000000000000000000000000000000000000000000000000000000000000000000000000000000000000000000000000000000000000000000000000000000000000000000000000000000000000000000000000000000000000000000000000000000000000000000000000000000000000000000000000000000000000000000000000000000000000000000000000000000000000000000000000000000000000000000000101210000000000000000000000000000000000000000GOBIERNO DE LA PROVINCIA DE CORDOBA   MINISTERIO DE PROMOCION DEL EMPLEO Y EPROGRAMA VIDA DIGNA                   APODERADO DE                          PINTO RAQUEL SOLEDAD                                                                                                                                    100000000000000000000000000 000000000000000000000000000020000005533                                      
00010320210503202127354581391000354581390020931ALBACHIARA JESICA FABIANA  1354581390400000000000                           000000000040010000002000000000000000000000000000000000000000000000000000000000000000000000000000000000000000000000000000000000000000000000000000000000000000000000000000000000000000000000000000000000000000000000000000000000000000000000000000000000000000000000000000000000000000000000000000000000000000000000000000000000000000000000000000000000000000000000000000000000000000000000000000000000000000000000000000000000000000000000000000000000000000000101210000000000000000000000000000000000000000GOBIERNO DE LA PROVINCIA DE CORDOBA   MINISTERIO DE PROMOCION DEL EMPLEO Y EPROGRAMA VIDA DIGNA                   APODERADO DE                          ALBACHIARA JESICA FABIANA                                                                                                                               100000000000000000000000000 000000000000000000000000000020000005533                                      
00010320210503202127323367227000323367220020931CABRERA ILDA HAYDEE        1323367220400000000000                           000000000040010000002000000000000000000000000000000000000000000000000000000000000000000000000000000000000000000000000000000000000000000000000000000000000000000000000000000000000000000000000000000000000000000000000000000000000000000000000000000000000000000000000000000000000000000000000000000000000000000000000000000000000000000000000000000000000000000000000000000000000000000000000000000000000000000000000000000000000000000000000000000000000000000101210000000000000000000000000000000000000000GOBIERNO DE LA PROVINCIA DE CORDOBA   MINISTERIO DE PROMOCION DEL EMPLEO Y EPROGRAMA VIDA DIGNA                   APODERADO DE                          CABRERA ILDA HAYDEE                                                                                                                                     100000000000000000000000000 000000000000000000000000000020000005533                                      
00010320210503202123181693274000181693270020931CALDERON LILIANA DEL VALLE 1181693270400000000000                           000000000040010000002000000000000000000000000000000000000000000000000000000000000000000000000000000000000000000000000000000000000000000000000000000000000000000000000000000000000000000000000000000000000000000000000000000000000000000000000000000000000000000000000000000000000000000000000000000000000000000000000000000000000000000000000000000000000000000000000000000000000000000000000000000000000000000000000000000000000000000000000000000000000000000101210000000000000000000000000000000000000000GOBIERNO DE LA PROVINCIA DE CORDOBA   MINISTERIO DE PROMOCION DEL EMPLEO Y EPROGRAMA VIDA DIGNA                   APODERADO DE                          CALDERON LILIANA DEL VALLE                                                                                                                              100000000000000000000000000 000000000000000000000000000020000005533                                      
00010320210503202127346899668000346899660020931NI헲 JESICA                1346899660400000000000                           000000000040010000002000000000000000000000000000000000000000000000000000000000000000000000000000000000000000000000000000000000000000000000000000000000000000000000000000000000000000000000000000000000000000000000000000000000000000000000000000000000000000000000000000000000000000000000000000000000000000000000000000000000000000000000000000000000000000000000000000000000000000000000000000000000000000000000000000000000000000000000000000000000000000000101210000000000000000000000000000000000000000GOBIERNO DE LA PROVINCIA DE CORDOBA   MINISTERIO DE PROMOCION DEL EMPLEO Y EPROGRAMA VIDA DIGNA                   APODERADO DE                          NI헲 JESICA                                                                                                                                             100000000000000000000000000 000000000000000000000000000020000005533                                      
00010320210503202127415942546000415942540020931OLMOS LUZ STEFANIA         1415942540400000000000                           000000000040010000002000000000000000000000000000000000000000000000000000000000000000000000000000000000000000000000000000000000000000000000000000000000000000000000000000000000000000000000000000000000000000000000000000000000000000000000000000000000000000000000000000000000000000000000000000000000000000000000000000000000000000000000000000000000000000000000000000000000000000000000000000000000000000000000000000000000000000000000000000000000000000000101210000000000000000000000000000000000000000GOBIERNO DE LA PROVINCIA DE CORDOBA   MINISTERIO DE PROMOCION DEL EMPLEO Y EPROGRAMA VIDA DIGNA                   APODERADO DE                          OLMOS LUZ STEFANIA                                                                                                                                      100000000000000000000000000 000000000000000000000000000020000005533                                      
00010320210503202124243033612000243033610020931ALIENDRO VALERIA ALEJANDRA 1243033610400000000000                           000000000040010000002000000000000000000000000000000000000000000000000000000000000000000000000000000000000000000000000000000000000000000000000000000000000000000000000000000000000000000000000000000000000000000000000000000000000000000000000000000000000000000000000000000000000000000000000000000000000000000000000000000000000000000000000000000000000000000000000000000000000000000000000000000000000000000000000000000000000000000000000000000000000000000101210000000000000000000000000000000000000000GOBIERNO DE LA PROVINCIA DE CORDOBA   MINISTERIO DE PROMOCION DEL EMPLEO Y EPROGRAMA VIDA DIGNA                   APODERADO DE                          ALIENDRO VALERIA ALEJANDRA                                                                                                                              100000000000000000000000000 000000000000000000000000000020000005533                                      
00010320210503202120369845080000369845080020931FERREYRA RODRIGO DANIEL    1369845080400000000000                           000000000040010000002000000000000000000000000000000000000000000000000000000000000000000000000000000000000000000000000000000000000000000000000000000000000000000000000000000000000000000000000000000000000000000000000000000000000000000000000000000000000000000000000000000000000000000000000000000000000000000000000000000000000000000000000000000000000000000000000000000000000000000000000000000000000000000000000000000000000000000000000000000000000000000101210000000000000000000000000000000000000000GOBIERNO DE LA PROVINCIA DE CORDOBA   MINISTERIO DE PROMOCION DEL EMPLEO Y EPROGRAMA VIDA DIGNA                   APODERADO DE                          FERREYRA RODRIGO DANIEL                                                                                                                                 100000000000000000000000000 000000000000000000000000000020000005533                                      
00010320210503202127295498329000295498320020931MANSILLA MALVINA           1295498320400000000000                           000000000040010000002000000000000000000000000000000000000000000000000000000000000000000000000000000000000000000000000000000000000000000000000000000000000000000000000000000000000000000000000000000000000000000000000000000000000000000000000000000000000000000000000000000000000000000000000000000000000000000000000000000000000000000000000000000000000000000000000000000000000000000000000000000000000000000000000000000000000000000000000000000000000000000101210000000000000000000000000000000000000000GOBIERNO DE LA PROVINCIA DE CORDOBA   MINISTERIO DE PROMOCION DEL EMPLEO Y EPROGRAMA VIDA DIGNA                   APODERADO DE                          MANSILLA MALVINA                                                                                                                                        100000000000000000000000000 000000000000000000000000000020000005533                                      
