00022021000000950001890000000000000000000000000001032021050320210205541                                                                                                                                                                                                                                                                                                                                                                                                                                                                                                                                                                                                                                                                                                                                                                                                                                                                                                                                                                                         
00010320210503202100272189987000218998710020931MANZANELLI TERESITA DEL VAL1218998710400000000000                           000000000040010000002000000000000000000000000000000000000000000000000000000000000000000000000000000000000000000000000000000000000000000000000000000000000000000000000000000000000000000000000000000000000000000000000000000000000000000000000000000000000000000000000000000000000000000000000000000000000000000000000000000000000000000000000000000000000000000000000000000000000000000000000000000000000000000000000000000000000000000000000000000000000000000101210000000000000000000000000000000000000000GOBIERNO DE LA PROVINCIA DE CORDOBA   MINISTERIO DE DESARROLLO SOCIAL       PROGRAMA VIDA DIGNA                   APODERADO DE                          MANZANELLI TERESITA DEL VALLE                                                                                                                           100000000000000000000000000 000000000000000000000000000020000005541                                      
00010320210503202100273587107000358710720020931ANGEL NOELIA DAIANA        1358710720400000000000                           000000000040010000002000000000000000000000000000000000000000000000000000000000000000000000000000000000000000000000000000000000000000000000000000000000000000000000000000000000000000000000000000000000000000000000000000000000000000000000000000000000000000000000000000000000000000000000000000000000000000000000000000000000000000000000000000000000000000000000000000000000000000000000000000000000000000000000000000000000000000000000000000000000000000000101210000000000000000000000000000000000000000GOBIERNO DE LA PROVINCIA DE CORDOBA   MINISTERIO DE DESARROLLO SOCIAL       PROGRAMA VIDA DIGNA                   APODERADO DE                          ANGEL NOELIA DAIANA                                                                                                                                     100000000000000000000000000 000000000000000000000000000020000005541                                      
00010320210503202100230462695000046269510020931ARANA MARINO CARLOS        1046269510400000000000                           000000000040010000002000000000000000000000000000000000000000000000000000000000000000000000000000000000000000000000000000000000000000000000000000000000000000000000000000000000000000000000000000000000000000000000000000000000000000000000000000000000000000000000000000000000000000000000000000000000000000000000000000000000000000000000000000000000000000000000000000000000000000000000000000000000000000000000000000000000000000000000000000000000000000000101210000000000000000000000000000000000000000GOBIERNO DE LA PROVINCIA DE CORDOBA   MINISTERIO DE DESARROLLO SOCIAL       PROGRAMA VIDA DIGNA                   APODERADO DE                          ARANA MARINO CARLOS                                                                                                                                     100000000000000000000000000 000000000000000000000000000020000005541                                      
00010320210503202100232717222000271722210020931AVALOS DANIELA BEATRIZ     1271722210400000000000                           000000000040010000002000000000000000000000000000000000000000000000000000000000000000000000000000000000000000000000000000000000000000000000000000000000000000000000000000000000000000000000000000000000000000000000000000000000000000000000000000000000000000000000000000000000000000000000000000000000000000000000000000000000000000000000000000000000000000000000000000000000000000000000000000000000000000000000000000000000000000000000000000000000000000000101210000000000000000000000000000000000000000GOBIERNO DE LA PROVINCIA DE CORDOBA   MINISTERIO DE DESARROLLO SOCIAL       PROGRAMA VIDA DIGNA                   APODERADO DE                          AVALOS DANIELA BEATRIZ                                                                                                                                  100000000000000000000000000 000000000000000000000000000020000005541                                      
00010320210503202100272930344000293034480020931AVALOS MARIA CECILIA       1293034480400000000000                           000000000040010000002000000000000000000000000000000000000000000000000000000000000000000000000000000000000000000000000000000000000000000000000000000000000000000000000000000000000000000000000000000000000000000000000000000000000000000000000000000000000000000000000000000000000000000000000000000000000000000000000000000000000000000000000000000000000000000000000000000000000000000000000000000000000000000000000000000000000000000000000000000000000000000101210000000000000000000000000000000000000000GOBIERNO DE LA PROVINCIA DE CORDOBA   MINISTERIO DE DESARROLLO SOCIAL       PROGRAMA VIDA DIGNA                   APODERADO DE                          AVALOS MARIA CECILIA                                                                                                                                    100000000000000000000000000 000000000000000000000000000020000005541                                      
00010320210503202100201683901000168390160020931BRITOS MIGUEL ANGEL        1168390160400000000000                           000000000040010000002000000000000000000000000000000000000000000000000000000000000000000000000000000000000000000000000000000000000000000000000000000000000000000000000000000000000000000000000000000000000000000000000000000000000000000000000000000000000000000000000000000000000000000000000000000000000000000000000000000000000000000000000000000000000000000000000000000000000000000000000000000000000000000000000000000000000000000000000000000000000000000101210000000000000000000000000000000000000000GOBIERNO DE LA PROVINCIA DE CORDOBA   MINISTERIO DE DESARROLLO SOCIAL       PROGRAMA VIDA DIGNA                   APODERADO DE                          BRITOS MIGUEL ANGEL                                                                                                                                     100000000000000000000000000 000000000000000000000000000020000005541                                      
00010320210503202100232729641000272964110020931CHAVERO LAURA MAGDALENA    1272964110400000000000                           000000000040010000002000000000000000000000000000000000000000000000000000000000000000000000000000000000000000000000000000000000000000000000000000000000000000000000000000000000000000000000000000000000000000000000000000000000000000000000000000000000000000000000000000000000000000000000000000000000000000000000000000000000000000000000000000000000000000000000000000000000000000000000000000000000000000000000000000000000000000000000000000000000000000000101210000000000000000000000000000000000000000GOBIERNO DE LA PROVINCIA DE CORDOBA   MINISTERIO DE DESARROLLO SOCIAL       PROGRAMA VIDA DIGNA                   APODERADO DE                          CHAVERO LAURA MAGDALENA                                                                                                                                 100000000000000000000000000 000000000000000000000000000020000005541                                      
00010320210503202100231873469000187346920020931CORTES MARIA ROSA          1187346920400000000000                           000000000040010000001500000000000000000000000000000000000000000000000000000000000000000000000000000000000000000000000000000000000000000000000000000000000000000000000000000000000000000000000000000000000000000000000000000000000000000000000000000000000000000000000000000000000000000000000000000000000000000000000000000000000000000000000000000000000000000000000000000000000000000000000000000000000000000000000000000000000000000000000000000000000000000101210000000000000000000000000000000000000000GOBIERNO DE LA PROVINCIA DE CORDOBA   MINISTERIO DE DESARROLLO SOCIAL       PROGRAMA VIDA DIGNA                   APODERADO DE                          CORTES MARIA ROSA                                                                                                                                       100000000000000000000000000 000000000000000000000000000015000005541                                      
00010320210503202100272057542000205754240020931FEBRE MARIA DEL CARMEN     1205754240400000000000                           000000000040010000002000000000000000000000000000000000000000000000000000000000000000000000000000000000000000000000000000000000000000000000000000000000000000000000000000000000000000000000000000000000000000000000000000000000000000000000000000000000000000000000000000000000000000000000000000000000000000000000000000000000000000000000000000000000000000000000000000000000000000000000000000000000000000000000000000000000000000000000000000000000000000000101210000000000000000000000000000000000000000GOBIERNO DE LA PROVINCIA DE CORDOBA   MINISTERIO DE DESARROLLO SOCIAL       PROGRAMA VIDA DIGNA                   APODERADO DE                          FEBRE MARIA DEL CARMEN                                                                                                                                  100000000000000000000000000 000000000000000000000000000020000005541                                      
00010320210503202100272537070000253707030020931FERNANDEZ ESTELA MONICA    1253707030400000000000                           000000000040010000002000000000000000000000000000000000000000000000000000000000000000000000000000000000000000000000000000000000000000000000000000000000000000000000000000000000000000000000000000000000000000000000000000000000000000000000000000000000000000000000000000000000000000000000000000000000000000000000000000000000000000000000000000000000000000000000000000000000000000000000000000000000000000000000000000000000000000000000000000000000000000000101210000000000000000000000000000000000000000GOBIERNO DE LA PROVINCIA DE CORDOBA   MINISTERIO DE DESARROLLO SOCIAL       PROGRAMA VIDA DIGNA                   APODERADO DE                          FERNANDEZ ESTELA MONICA                                                                                                                                 100000000000000000000000000 000000000000000000000000000020000005541                                      
00010320210503202100273094114000309411460020931GAUNA ANALIA VALERIA       1309411460400000000000                           000000000040010000002000000000000000000000000000000000000000000000000000000000000000000000000000000000000000000000000000000000000000000000000000000000000000000000000000000000000000000000000000000000000000000000000000000000000000000000000000000000000000000000000000000000000000000000000000000000000000000000000000000000000000000000000000000000000000000000000000000000000000000000000000000000000000000000000000000000000000000000000000000000000000000101210000000000000000000000000000000000000000GOBIERNO DE LA PROVINCIA DE CORDOBA   MINISTERIO DE DESARROLLO SOCIAL       PROGRAMA VIDA DIGNA                   APODERADO DE                          GAUNA ANALIA VALERIA                                                                                                                                    100000000000000000000000000 000000000000000000000000000020000005541                                      
00010320210503202100272545904000254590430020931LUCERO ADRIANA             1254590430400000000000                           000000000040010000002000000000000000000000000000000000000000000000000000000000000000000000000000000000000000000000000000000000000000000000000000000000000000000000000000000000000000000000000000000000000000000000000000000000000000000000000000000000000000000000000000000000000000000000000000000000000000000000000000000000000000000000000000000000000000000000000000000000000000000000000000000000000000000000000000000000000000000000000000000000000000000101210000000000000000000000000000000000000000GOBIERNO DE LA PROVINCIA DE CORDOBA   MINISTERIO DE DESARROLLO SOCIAL       PROGRAMA VIDA DIGNA                   APODERADO DE                          LUCERO ADRIANA                                                                                                                                          100000000000000000000000000 000000000000000000000000000020000005541                                      
00010320210503202100273001337000300133720020931MERCADO MIRTA DANIELA      1300133720400000000000                           000000000040010000002000000000000000000000000000000000000000000000000000000000000000000000000000000000000000000000000000000000000000000000000000000000000000000000000000000000000000000000000000000000000000000000000000000000000000000000000000000000000000000000000000000000000000000000000000000000000000000000000000000000000000000000000000000000000000000000000000000000000000000000000000000000000000000000000000000000000000000000000000000000000000000101210000000000000000000000000000000000000000GOBIERNO DE LA PROVINCIA DE CORDOBA   MINISTERIO DE DESARROLLO SOCIAL       PROGRAMA VIDA DIGNA                   APODERADO DE                          MERCADO MIRTA DANIELA                                                                                                                                   100000000000000000000000000 000000000000000000000000000020000005541                                      
00010320210503202100272930344000293034470020931ORTEGA MARIA ELIZABETH     1293034470400000000000                           000000000040010000002000000000000000000000000000000000000000000000000000000000000000000000000000000000000000000000000000000000000000000000000000000000000000000000000000000000000000000000000000000000000000000000000000000000000000000000000000000000000000000000000000000000000000000000000000000000000000000000000000000000000000000000000000000000000000000000000000000000000000000000000000000000000000000000000000000000000000000000000000000000000000000101210000000000000000000000000000000000000000GOBIERNO DE LA PROVINCIA DE CORDOBA   MINISTERIO DE DESARROLLO SOCIAL       PROGRAMA VIDA DIGNA                   APODERADO DE                          ORTEGA MARIA ELIZABETH                                                                                                                                  100000000000000000000000000 000000000000000000000000000020000005541                                      
00010320210503202100273902370000390237040020931ORTEGA ROCIO AYLEN         1390237040400000000000                           000000000040010000002000000000000000000000000000000000000000000000000000000000000000000000000000000000000000000000000000000000000000000000000000000000000000000000000000000000000000000000000000000000000000000000000000000000000000000000000000000000000000000000000000000000000000000000000000000000000000000000000000000000000000000000000000000000000000000000000000000000000000000000000000000000000000000000000000000000000000000000000000000000000000000101210000000000000000000000000000000000000000GOBIERNO DE LA PROVINCIA DE CORDOBA   MINISTERIO DE DESARROLLO SOCIAL       PROGRAMA VIDA DIGNA                   APODERADO DE                          ORTEGA ROCIO AYLEN                                                                                                                                      100000000000000000000000000 000000000000000000000000000020000005541                                      
00010320210503202100201005562000100556230020931OVIEDO PEDRO CESAR         1100556230400000000000                           000000000040010000002000000000000000000000000000000000000000000000000000000000000000000000000000000000000000000000000000000000000000000000000000000000000000000000000000000000000000000000000000000000000000000000000000000000000000000000000000000000000000000000000000000000000000000000000000000000000000000000000000000000000000000000000000000000000000000000000000000000000000000000000000000000000000000000000000000000000000000000000000000000000000000101210000000000000000000000000000000000000000GOBIERNO DE LA PROVINCIA DE CORDOBA   MINISTERIO DE DESARROLLO SOCIAL       PROGRAMA VIDA DIGNA                   APODERADO DE                          OVIEDO PEDRO CESAR                                                                                                                                      100000000000000000000000000 000000000000000000000000000020000005541                                      
00010320210503202100271630003000163000360020931QUINTERO YOLANDA JOSEFINA  1163000360400000000000                           000000000040010000002000000000000000000000000000000000000000000000000000000000000000000000000000000000000000000000000000000000000000000000000000000000000000000000000000000000000000000000000000000000000000000000000000000000000000000000000000000000000000000000000000000000000000000000000000000000000000000000000000000000000000000000000000000000000000000000000000000000000000000000000000000000000000000000000000000000000000000000000000000000000000000101210000000000000000000000000000000000000000GOBIERNO DE LA PROVINCIA DE CORDOBA   MINISTERIO DE DESARROLLO SOCIAL       PROGRAMA VIDA DIGNA                   APODERADO DE                          QUINTERO YOLANDA JOSEFINA                                                                                                                               100000000000000000000000000 000000000000000000000000000020000005541                                      
00010320210503202100204075150000407515070020931RIVEROS FERNANDO NAHUEL    1407515070400000000000                           000000000040010000002000000000000000000000000000000000000000000000000000000000000000000000000000000000000000000000000000000000000000000000000000000000000000000000000000000000000000000000000000000000000000000000000000000000000000000000000000000000000000000000000000000000000000000000000000000000000000000000000000000000000000000000000000000000000000000000000000000000000000000000000000000000000000000000000000000000000000000000000000000000000000000101210000000000000000000000000000000000000000GOBIERNO DE LA PROVINCIA DE CORDOBA   MINISTERIO DE DESARROLLO SOCIAL       PROGRAMA VIDA DIGNA                   APODERADO DE                          RIVEROS FERNANDO NAHUEL                                                                                                                                 100000000000000000000000000 000000000000000000000000000020000005541                                      
00010320210503202100202965936000296593630020931ROMERO CRISTIAN ARIEL      1296593630400000000000                           000000000040010000002000000000000000000000000000000000000000000000000000000000000000000000000000000000000000000000000000000000000000000000000000000000000000000000000000000000000000000000000000000000000000000000000000000000000000000000000000000000000000000000000000000000000000000000000000000000000000000000000000000000000000000000000000000000000000000000000000000000000000000000000000000000000000000000000000000000000000000000000000000000000000000101210000000000000000000000000000000000000000GOBIERNO DE LA PROVINCIA DE CORDOBA   MINISTERIO DE DESARROLLO SOCIAL       PROGRAMA VIDA DIGNA                   APODERADO DE                          ROMERO CRISTIAN ARIEL                                                                                                                                   100000000000000000000000000 000000000000000000000000000020000005541                                      
00010320210503202100272894413000289441330020931ROMERO TAMARA IVANA        1289441330400000000000                           000000000040010000002000000000000000000000000000000000000000000000000000000000000000000000000000000000000000000000000000000000000000000000000000000000000000000000000000000000000000000000000000000000000000000000000000000000000000000000000000000000000000000000000000000000000000000000000000000000000000000000000000000000000000000000000000000000000000000000000000000000000000000000000000000000000000000000000000000000000000000000000000000000000000000101210000000000000000000000000000000000000000GOBIERNO DE LA PROVINCIA DE CORDOBA   MINISTERIO DE DESARROLLO SOCIAL       PROGRAMA VIDA DIGNA                   APODERADO DE                          ROMERO TAMARA IVANA                                                                                                                                     100000000000000000000000000 000000000000000000000000000020000005541                                      
00010320210503202100202425984000242598460020931SORIA NESTOR HUGO          1242598460400000000000                           000000000040010000002000000000000000000000000000000000000000000000000000000000000000000000000000000000000000000000000000000000000000000000000000000000000000000000000000000000000000000000000000000000000000000000000000000000000000000000000000000000000000000000000000000000000000000000000000000000000000000000000000000000000000000000000000000000000000000000000000000000000000000000000000000000000000000000000000000000000000000000000000000000000000000101210000000000000000000000000000000000000000GOBIERNO DE LA PROVINCIA DE CORDOBA   MINISTERIO DE DESARROLLO SOCIAL       PROGRAMA VIDA DIGNA                   APODERADO DE                          SORIA NESTOR HUGO                                                                                                                                       100000000000000000000000000 000000000000000000000000000020000005541                                      
00010320210503202100272424830000242483040020931SOSA MARIA EUGENIA         1242483040400000000000                           000000000040010000002000000000000000000000000000000000000000000000000000000000000000000000000000000000000000000000000000000000000000000000000000000000000000000000000000000000000000000000000000000000000000000000000000000000000000000000000000000000000000000000000000000000000000000000000000000000000000000000000000000000000000000000000000000000000000000000000000000000000000000000000000000000000000000000000000000000000000000000000000000000000000000101210000000000000000000000000000000000000000GOBIERNO DE LA PROVINCIA DE CORDOBA   MINISTERIO DE DESARROLLO SOCIAL       PROGRAMA VIDA DIGNA                   APODERADO DE                          SOSA MARIA EUGENIA                                                                                                                                      100000000000000000000000000 000000000000000000000000000020000005541                                      
00010320210503202100202585081000258508190020931TORRES MARCOS ALEJANDRO    1258508190400000000000                           000000000040010000002000000000000000000000000000000000000000000000000000000000000000000000000000000000000000000000000000000000000000000000000000000000000000000000000000000000000000000000000000000000000000000000000000000000000000000000000000000000000000000000000000000000000000000000000000000000000000000000000000000000000000000000000000000000000000000000000000000000000000000000000000000000000000000000000000000000000000000000000000000000000000000101210000000000000000000000000000000000000000GOBIERNO DE LA PROVINCIA DE CORDOBA   MINISTERIO DE DESARROLLO SOCIAL       PROGRAMA VIDA DIGNA                   APODERADO DE                          TORRES MARCOS ALEJANDRO                                                                                                                                 100000000000000000000000000 000000000000000000000000000020000005541                                      
00010320210503202100273103925000310392560020931ALTAMIRANO ANA BELEN       1310392560400000000000                           000000000040010000002000000000000000000000000000000000000000000000000000000000000000000000000000000000000000000000000000000000000000000000000000000000000000000000000000000000000000000000000000000000000000000000000000000000000000000000000000000000000000000000000000000000000000000000000000000000000000000000000000000000000000000000000000000000000000000000000000000000000000000000000000000000000000000000000000000000000000000000000000000000000000000101210000000000000000000000000000000000000000GOBIERNO DE LA PROVINCIA DE CORDOBA   MINISTERIO DE DESARROLLO SOCIAL       PROGRAMA VIDA DIGNA                   APODERADO DE                          ALTAMIRANO ANA BELEN                                                                                                                                    100000000000000000000000000 000000000000000000000000000020000005541                                      
00010320210503202100273515858000351585800020931ARRIOLA CECILIA ELIZABETH  1351585800400000000000                           000000000040010000002000000000000000000000000000000000000000000000000000000000000000000000000000000000000000000000000000000000000000000000000000000000000000000000000000000000000000000000000000000000000000000000000000000000000000000000000000000000000000000000000000000000000000000000000000000000000000000000000000000000000000000000000000000000000000000000000000000000000000000000000000000000000000000000000000000000000000000000000000000000000000000101210000000000000000000000000000000000000000GOBIERNO DE LA PROVINCIA DE CORDOBA   MINISTERIO DE DESARROLLO SOCIAL       PROGRAMA VIDA DIGNA                   APODERADO DE                          ARRIOLA CECILIA ELIZABETH                                                                                                                               100000000000000000000000000 000000000000000000000000000020000005541                                      
00010320210503202100243085032000308503250020931ARRIOLA JORGE LUIS         1308503250400000000000                           000000000040010000002000000000000000000000000000000000000000000000000000000000000000000000000000000000000000000000000000000000000000000000000000000000000000000000000000000000000000000000000000000000000000000000000000000000000000000000000000000000000000000000000000000000000000000000000000000000000000000000000000000000000000000000000000000000000000000000000000000000000000000000000000000000000000000000000000000000000000000000000000000000000000000101210000000000000000000000000000000000000000GOBIERNO DE LA PROVINCIA DE CORDOBA   MINISTERIO DE DESARROLLO SOCIAL       PROGRAMA VIDA DIGNA                   APODERADO DE                          ARRIOLA JORGE LUIS                                                                                                                                      100000000000000000000000000 000000000000000000000000000020000005541                                      
00010320210503202100273847890000384789030020931AZNAL TAMARA MARIA DEL ROSA1384789030400000000000                           000000000040010000002000000000000000000000000000000000000000000000000000000000000000000000000000000000000000000000000000000000000000000000000000000000000000000000000000000000000000000000000000000000000000000000000000000000000000000000000000000000000000000000000000000000000000000000000000000000000000000000000000000000000000000000000000000000000000000000000000000000000000000000000000000000000000000000000000000000000000000000000000000000000000000101210000000000000000000000000000000000000000GOBIERNO DE LA PROVINCIA DE CORDOBA   MINISTERIO DE DESARROLLO SOCIAL       PROGRAMA VIDA DIGNA                   APODERADO DE                          AZNAL TAMARA MARIA DEL ROSARIO                                                                                                                          100000000000000000000000000 000000000000000000000000000020000005541                                      
00010320210503202100273833713000383371320020931BARZOLA SOL MACARENA       1383371320400000000000                           000000000040010000002000000000000000000000000000000000000000000000000000000000000000000000000000000000000000000000000000000000000000000000000000000000000000000000000000000000000000000000000000000000000000000000000000000000000000000000000000000000000000000000000000000000000000000000000000000000000000000000000000000000000000000000000000000000000000000000000000000000000000000000000000000000000000000000000000000000000000000000000000000000000000000101210000000000000000000000000000000000000000GOBIERNO DE LA PROVINCIA DE CORDOBA   MINISTERIO DE DESARROLLO SOCIAL       PROGRAMA VIDA DIGNA                   APODERADO DE                          BARZOLA SOL MACARENA                                                                                                                                    100000000000000000000000000 000000000000000000000000000020000005541                                      
00010320210503202100273387037000338703790020931BRITOS MALVINA SOLEDAD     1338703790400000000000                           000000000040010000002000000000000000000000000000000000000000000000000000000000000000000000000000000000000000000000000000000000000000000000000000000000000000000000000000000000000000000000000000000000000000000000000000000000000000000000000000000000000000000000000000000000000000000000000000000000000000000000000000000000000000000000000000000000000000000000000000000000000000000000000000000000000000000000000000000000000000000000000000000000000000000101210000000000000000000000000000000000000000GOBIERNO DE LA PROVINCIA DE CORDOBA   MINISTERIO DE DESARROLLO SOCIAL       PROGRAMA VIDA DIGNA                   APODERADO DE                          BRITOS MALVINA SOLEDAD                                                                                                                                  100000000000000000000000000 000000000000000000000000000020000005541                                      
00010320210503202100203387037000338703770020931BRITOS WALTER DAVID        1338703770400000000000                           000000000040010000002000000000000000000000000000000000000000000000000000000000000000000000000000000000000000000000000000000000000000000000000000000000000000000000000000000000000000000000000000000000000000000000000000000000000000000000000000000000000000000000000000000000000000000000000000000000000000000000000000000000000000000000000000000000000000000000000000000000000000000000000000000000000000000000000000000000000000000000000000000000000000000101210000000000000000000000000000000000000000GOBIERNO DE LA PROVINCIA DE CORDOBA   MINISTERIO DE DESARROLLO SOCIAL       PROGRAMA VIDA DIGNA                   APODERADO DE                          BRITOS WALTER DAVID                                                                                                                                     100000000000000000000000000 000000000000000000000000000020000005541                                      
00010320210503202100202086990000208699030020931BUSTO CARLOS SAUL          1208699030400000000000                           000000000040010000002000000000000000000000000000000000000000000000000000000000000000000000000000000000000000000000000000000000000000000000000000000000000000000000000000000000000000000000000000000000000000000000000000000000000000000000000000000000000000000000000000000000000000000000000000000000000000000000000000000000000000000000000000000000000000000000000000000000000000000000000000000000000000000000000000000000000000000000000000000000000000000101210000000000000000000000000000000000000000GOBIERNO DE LA PROVINCIA DE CORDOBA   MINISTERIO DE DESARROLLO SOCIAL       PROGRAMA VIDA DIGNA                   APODERADO DE                          BUSTO CARLOS SAUL                                                                                                                                       100000000000000000000000000 000000000000000000000000000020000005541                                      
00010320210503202100202633515000263351560020931BUSTOS ANDRES SEBASTIAN    1263351560400000000000                           000000000040010000002000000000000000000000000000000000000000000000000000000000000000000000000000000000000000000000000000000000000000000000000000000000000000000000000000000000000000000000000000000000000000000000000000000000000000000000000000000000000000000000000000000000000000000000000000000000000000000000000000000000000000000000000000000000000000000000000000000000000000000000000000000000000000000000000000000000000000000000000000000000000000000101210000000000000000000000000000000000000000GOBIERNO DE LA PROVINCIA DE CORDOBA   MINISTERIO DE DESARROLLO SOCIAL       PROGRAMA VIDA DIGNA                   APODERADO DE                          BUSTOS ANDRES SEBASTIAN                                                                                                                                 100000000000000000000000000 000000000000000000000000000020000005541                                      
00010320210503202100273744028000374402860020931DOMINGUEZ ELIANA MACARENA  1374402860400000000000                           000000000040010000002000000000000000000000000000000000000000000000000000000000000000000000000000000000000000000000000000000000000000000000000000000000000000000000000000000000000000000000000000000000000000000000000000000000000000000000000000000000000000000000000000000000000000000000000000000000000000000000000000000000000000000000000000000000000000000000000000000000000000000000000000000000000000000000000000000000000000000000000000000000000000000101210000000000000000000000000000000000000000GOBIERNO DE LA PROVINCIA DE CORDOBA   MINISTERIO DE DESARROLLO SOCIAL       PROGRAMA VIDA DIGNA                   APODERADO DE                          DOMINGUEZ ELIANA MACARENA                                                                                                                               100000000000000000000000000 000000000000000000000000000020000005541                                      
00010320210503202100200669807000066980710020931DOMINGUEZ LEONARDO REYMUNDO1066980710400000000000                           000000000040010000002000000000000000000000000000000000000000000000000000000000000000000000000000000000000000000000000000000000000000000000000000000000000000000000000000000000000000000000000000000000000000000000000000000000000000000000000000000000000000000000000000000000000000000000000000000000000000000000000000000000000000000000000000000000000000000000000000000000000000000000000000000000000000000000000000000000000000000000000000000000000000000101210000000000000000000000000000000000000000GOBIERNO DE LA PROVINCIA DE CORDOBA   MINISTERIO DE DESARROLLO SOCIAL       PROGRAMA VIDA DIGNA                   APODERADO DE                          DOMINGUEZ LEONARDO REYMUNDO                                                                                                                             100000000000000000000000000 000000000000000000000000000020000005541                                      
00010320210503202100273657561000365756170020931DOMINGUEZ MARIA BELEN      1365756170400000000000                           000000000040010000002000000000000000000000000000000000000000000000000000000000000000000000000000000000000000000000000000000000000000000000000000000000000000000000000000000000000000000000000000000000000000000000000000000000000000000000000000000000000000000000000000000000000000000000000000000000000000000000000000000000000000000000000000000000000000000000000000000000000000000000000000000000000000000000000000000000000000000000000000000000000000000101210000000000000000000000000000000000000000GOBIERNO DE LA PROVINCIA DE CORDOBA   MINISTERIO DE DESARROLLO SOCIAL       PROGRAMA VIDA DIGNA                   APODERADO DE                          DOMINGUEZ MARIA BELEN                                                                                                                                   100000000000000000000000000 000000000000000000000000000020000005541                                      
00010320210503202100271417788000141778870020931FARIAS ROSA MARTA          1141778870400000000000                           000000000040010000002000000000000000000000000000000000000000000000000000000000000000000000000000000000000000000000000000000000000000000000000000000000000000000000000000000000000000000000000000000000000000000000000000000000000000000000000000000000000000000000000000000000000000000000000000000000000000000000000000000000000000000000000000000000000000000000000000000000000000000000000000000000000000000000000000000000000000000000000000000000000000000101210000000000000000000000000000000000000000GOBIERNO DE LA PROVINCIA DE CORDOBA   MINISTERIO DE DESARROLLO SOCIAL       PROGRAMA VIDA DIGNA                   APODERADO DE                          FARIAS ROSA MARTA                                                                                                                                       100000000000000000000000000 000000000000000000000000000020000005541                                      
00010320210503202100271643220000164322010020931FIGUEROA TERESA MARGARITA  1164322010400000000000                           000000000040010000002000000000000000000000000000000000000000000000000000000000000000000000000000000000000000000000000000000000000000000000000000000000000000000000000000000000000000000000000000000000000000000000000000000000000000000000000000000000000000000000000000000000000000000000000000000000000000000000000000000000000000000000000000000000000000000000000000000000000000000000000000000000000000000000000000000000000000000000000000000000000000000101210000000000000000000000000000000000000000GOBIERNO DE LA PROVINCIA DE CORDOBA   MINISTERIO DE DESARROLLO SOCIAL       PROGRAMA VIDA DIGNA                   APODERADO DE                          FIGUEROA TERESA MARGARITA                                                                                                                               100000000000000000000000000 000000000000000000000000000020000005541                                      
00010320210503202100201426240000142624090020931GUZMAN ALBERTO NICOMEDES   1142624090400000000000                           000000000040010000002000000000000000000000000000000000000000000000000000000000000000000000000000000000000000000000000000000000000000000000000000000000000000000000000000000000000000000000000000000000000000000000000000000000000000000000000000000000000000000000000000000000000000000000000000000000000000000000000000000000000000000000000000000000000000000000000000000000000000000000000000000000000000000000000000000000000000000000000000000000000000000101210000000000000000000000000000000000000000GOBIERNO DE LA PROVINCIA DE CORDOBA   MINISTERIO DE DESARROLLO SOCIAL       PROGRAMA VIDA DIGNA                   APODERADO DE                          GUZMAN ALBERTO NICOMEDES                                                                                                                                100000000000000000000000000 000000000000000000000000000020000005541                                      
00010320210503202100273222194000322219400020931GUZMAN FANNY SILVIA        1322219400400000000000                           000000000040010000002000000000000000000000000000000000000000000000000000000000000000000000000000000000000000000000000000000000000000000000000000000000000000000000000000000000000000000000000000000000000000000000000000000000000000000000000000000000000000000000000000000000000000000000000000000000000000000000000000000000000000000000000000000000000000000000000000000000000000000000000000000000000000000000000000000000000000000000000000000000000000000101210000000000000000000000000000000000000000GOBIERNO DE LA PROVINCIA DE CORDOBA   MINISTERIO DE DESARROLLO SOCIAL       PROGRAMA VIDA DIGNA                   APODERADO DE                          GUZMAN FANNY SILVIA                                                                                                                                     100000000000000000000000000 000000000000000000000000000020000005541                                      
00010320210503202100272774011000277401150020931MENDOZA VERONICA DEL VALLE 1277401150400000000000                           000000000040010000002000000000000000000000000000000000000000000000000000000000000000000000000000000000000000000000000000000000000000000000000000000000000000000000000000000000000000000000000000000000000000000000000000000000000000000000000000000000000000000000000000000000000000000000000000000000000000000000000000000000000000000000000000000000000000000000000000000000000000000000000000000000000000000000000000000000000000000000000000000000000000000101210000000000000000000000000000000000000000GOBIERNO DE LA PROVINCIA DE CORDOBA   MINISTERIO DE DESARROLLO SOCIAL       PROGRAMA VIDA DIGNA                   APODERADO DE                          MENDOZA VERONICA DEL VALLE                                                                                                                              100000000000000000000000000 000000000000000000000000000020000005541                                      
00010320210503202100202830141000283014130020931OVIEDO JOSE MARTIN         1283014130400000000000                           000000000040010000002000000000000000000000000000000000000000000000000000000000000000000000000000000000000000000000000000000000000000000000000000000000000000000000000000000000000000000000000000000000000000000000000000000000000000000000000000000000000000000000000000000000000000000000000000000000000000000000000000000000000000000000000000000000000000000000000000000000000000000000000000000000000000000000000000000000000000000000000000000000000000000101210000000000000000000000000000000000000000GOBIERNO DE LA PROVINCIA DE CORDOBA   MINISTERIO DE DESARROLLO SOCIAL       PROGRAMA VIDA DIGNA                   APODERADO DE                          OVIEDO JOSE MARTIN                                                                                                                                      100000000000000000000000000 000000000000000000000000000020000005541                                      
00010320210503202100202858443000285844360020931ROJAS JULIO CESAR          1285844360400000000000                           000000000040010000002000000000000000000000000000000000000000000000000000000000000000000000000000000000000000000000000000000000000000000000000000000000000000000000000000000000000000000000000000000000000000000000000000000000000000000000000000000000000000000000000000000000000000000000000000000000000000000000000000000000000000000000000000000000000000000000000000000000000000000000000000000000000000000000000000000000000000000000000000000000000000000101210000000000000000000000000000000000000000GOBIERNO DE LA PROVINCIA DE CORDOBA   MINISTERIO DE DESARROLLO SOCIAL       PROGRAMA VIDA DIGNA                   APODERADO DE                          ROJAS JULIO CESAR                                                                                                                                       100000000000000000000000000 000000000000000000000000000020000005541                                      
00010320210503202100201471754000147175430020931ROMERO JOSE HECTOR         1147175430400000000000                           000000000040010000002000000000000000000000000000000000000000000000000000000000000000000000000000000000000000000000000000000000000000000000000000000000000000000000000000000000000000000000000000000000000000000000000000000000000000000000000000000000000000000000000000000000000000000000000000000000000000000000000000000000000000000000000000000000000000000000000000000000000000000000000000000000000000000000000000000000000000000000000000000000000000000101210000000000000000000000000000000000000000GOBIERNO DE LA PROVINCIA DE CORDOBA   MINISTERIO DE DESARROLLO SOCIAL       PROGRAMA VIDA DIGNA                   APODERADO DE                          ROMERO JOSE HECTOR                                                                                                                                      100000000000000000000000000 000000000000000000000000000020000005541                                      
00010320210503202100273744027000374402780020931VALLES VANESA MABEL        1374402780400000000000                           000000000040010000002000000000000000000000000000000000000000000000000000000000000000000000000000000000000000000000000000000000000000000000000000000000000000000000000000000000000000000000000000000000000000000000000000000000000000000000000000000000000000000000000000000000000000000000000000000000000000000000000000000000000000000000000000000000000000000000000000000000000000000000000000000000000000000000000000000000000000000000000000000000000000000101210000000000000000000000000000000000000000GOBIERNO DE LA PROVINCIA DE CORDOBA   MINISTERIO DE DESARROLLO SOCIAL       PROGRAMA VIDA DIGNA                   APODERADO DE                          VALLES VANESA MABEL                                                                                                                                     100000000000000000000000000 000000000000000000000000000020000005541                                      
00010320210503202100272706918000270691800020931ALLENDE SANDRA LORENA      1270691800400000000000                           000000000040010000002000000000000000000000000000000000000000000000000000000000000000000000000000000000000000000000000000000000000000000000000000000000000000000000000000000000000000000000000000000000000000000000000000000000000000000000000000000000000000000000000000000000000000000000000000000000000000000000000000000000000000000000000000000000000000000000000000000000000000000000000000000000000000000000000000000000000000000000000000000000000000000101210000000000000000000000000000000000000000GOBIERNO DE LA PROVINCIA DE CORDOBA   MINISTERIO DE DESARROLLO SOCIAL       PROGRAMA VIDA DIGNA                   APODERADO DE                          ALLENDE SANDRA LORENA                                                                                                                                   100000000000000000000000000 000000000000000000000000000020000005541                                      
00010320210503202100271829063000182906330020931CHARRAS DAMIANA ROSARIO    1182906330400000000000                           000000000040010000002000000000000000000000000000000000000000000000000000000000000000000000000000000000000000000000000000000000000000000000000000000000000000000000000000000000000000000000000000000000000000000000000000000000000000000000000000000000000000000000000000000000000000000000000000000000000000000000000000000000000000000000000000000000000000000000000000000000000000000000000000000000000000000000000000000000000000000000000000000000000000000101210000000000000000000000000000000000000000GOBIERNO DE LA PROVINCIA DE CORDOBA   MINISTERIO DE DESARROLLO SOCIAL       PROGRAMA VIDA DIGNA                   APODERADO DE                          CHARRAS DAMIANA ROSARIO                                                                                                                                 100000000000000000000000000 000000000000000000000000000020000005541                                      
00010320210503202100272222478000222247840020931GONZALEZ NANCY EDITH       1222247840400000000000                           000000000040010000002000000000000000000000000000000000000000000000000000000000000000000000000000000000000000000000000000000000000000000000000000000000000000000000000000000000000000000000000000000000000000000000000000000000000000000000000000000000000000000000000000000000000000000000000000000000000000000000000000000000000000000000000000000000000000000000000000000000000000000000000000000000000000000000000000000000000000000000000000000000000000000101210000000000000000000000000000000000000000GOBIERNO DE LA PROVINCIA DE CORDOBA   MINISTERIO DE DESARROLLO SOCIAL       PROGRAMA VIDA DIGNA                   APODERADO DE                          GONZALEZ NANCY EDITH                                                                                                                                    100000000000000000000000000 000000000000000000000000000020000005541                                      
00010320210503202100233712561000371256190020931PALACIO DIEGO              1371256190400000000000                           000000000040010000002000000000000000000000000000000000000000000000000000000000000000000000000000000000000000000000000000000000000000000000000000000000000000000000000000000000000000000000000000000000000000000000000000000000000000000000000000000000000000000000000000000000000000000000000000000000000000000000000000000000000000000000000000000000000000000000000000000000000000000000000000000000000000000000000000000000000000000000000000000000000000000101210000000000000000000000000000000000000000GOBIERNO DE LA PROVINCIA DE CORDOBA   MINISTERIO DE DESARROLLO SOCIAL       PROGRAMA VIDA DIGNA                   APODERADO DE                          PALACIO DIEGO                                                                                                                                           100000000000000000000000000 000000000000000000000000000020000005541                                      
00010320210503202100272328755000232875550020931PALOMEQUE ELIZABETH DEL VAL1232875550400000000000                           000000000040010000002000000000000000000000000000000000000000000000000000000000000000000000000000000000000000000000000000000000000000000000000000000000000000000000000000000000000000000000000000000000000000000000000000000000000000000000000000000000000000000000000000000000000000000000000000000000000000000000000000000000000000000000000000000000000000000000000000000000000000000000000000000000000000000000000000000000000000000000000000000000000000000101210000000000000000000000000000000000000000GOBIERNO DE LA PROVINCIA DE CORDOBA   MINISTERIO DE DESARROLLO SOCIAL       PROGRAMA VIDA DIGNA                   APODERADO DE                          PALOMEQUE ELIZABETH DEL VALLE                                                                                                                           100000000000000000000000000 000000000000000000000000000020000005541                                      
00010320210503202100203210734000321073410020931ARGUELLO HECTOR EDUARDO    1321073410400000000000                           000000000040010000002000000000000000000000000000000000000000000000000000000000000000000000000000000000000000000000000000000000000000000000000000000000000000000000000000000000000000000000000000000000000000000000000000000000000000000000000000000000000000000000000000000000000000000000000000000000000000000000000000000000000000000000000000000000000000000000000000000000000000000000000000000000000000000000000000000000000000000000000000000000000000000101210000000000000000000000000000000000000000GOBIERNO DE LA PROVINCIA DE CORDOBA   MINISTERIO DE DESARROLLO SOCIAL       PROGRAMA VIDA DIGNA                   APODERADO DE                          ARGUELLO HECTOR EDUARDO                                                                                                                                 100000000000000000000000000 000000000000000000000000000020000005541                                      
00010320210503202100273015406000301540660020931ARGUELLO JOSEFINA          1301540660400000000000                           000000000040010000002000000000000000000000000000000000000000000000000000000000000000000000000000000000000000000000000000000000000000000000000000000000000000000000000000000000000000000000000000000000000000000000000000000000000000000000000000000000000000000000000000000000000000000000000000000000000000000000000000000000000000000000000000000000000000000000000000000000000000000000000000000000000000000000000000000000000000000000000000000000000000000101210000000000000000000000000000000000000000GOBIERNO DE LA PROVINCIA DE CORDOBA   MINISTERIO DE DESARROLLO SOCIAL       PROGRAMA VIDA DIGNA                   APODERADO DE                          ARGUELLO JOSEFINA                                                                                                                                       100000000000000000000000000 000000000000000000000000000020000005541                                      
00010320210503202100202943903000294390330020931BALENZUELA HECTOR JAVIER   1294390330400000000000                           000000000040010000002000000000000000000000000000000000000000000000000000000000000000000000000000000000000000000000000000000000000000000000000000000000000000000000000000000000000000000000000000000000000000000000000000000000000000000000000000000000000000000000000000000000000000000000000000000000000000000000000000000000000000000000000000000000000000000000000000000000000000000000000000000000000000000000000000000000000000000000000000000000000000000101210000000000000000000000000000000000000000GOBIERNO DE LA PROVINCIA DE CORDOBA   MINISTERIO DE DESARROLLO SOCIAL       PROGRAMA VIDA DIGNA                   APODERADO DE                          BALENZUELA HECTOR JAVIER                                                                                                                                100000000000000000000000000 000000000000000000000000000020000005541                                      
00010320210503202100270462876000046287600020931CASTRO MARIA TOMASA        1046287600400000000000                           000000000040010000002000000000000000000000000000000000000000000000000000000000000000000000000000000000000000000000000000000000000000000000000000000000000000000000000000000000000000000000000000000000000000000000000000000000000000000000000000000000000000000000000000000000000000000000000000000000000000000000000000000000000000000000000000000000000000000000000000000000000000000000000000000000000000000000000000000000000000000000000000000000000000000101210000000000000000000000000000000000000000GOBIERNO DE LA PROVINCIA DE CORDOBA   MINISTERIO DE DESARROLLO SOCIAL       PROGRAMA VIDA DIGNA                   APODERADO DE                          CASTRO MARIA TOMASA                                                                                                                                     100000000000000000000000000 000000000000000000000000000020000005541                                      
00010320210503202100274003070000400307080020931CLAVERO MARIA LOURDES      1400307080400000000000                           000000000040010000002000000000000000000000000000000000000000000000000000000000000000000000000000000000000000000000000000000000000000000000000000000000000000000000000000000000000000000000000000000000000000000000000000000000000000000000000000000000000000000000000000000000000000000000000000000000000000000000000000000000000000000000000000000000000000000000000000000000000000000000000000000000000000000000000000000000000000000000000000000000000000000101210000000000000000000000000000000000000000GOBIERNO DE LA PROVINCIA DE CORDOBA   MINISTERIO DE DESARROLLO SOCIAL       PROGRAMA VIDA DIGNA                   APODERADO DE                          CLAVERO MARIA LOURDES                                                                                                                                   100000000000000000000000000 000000000000000000000000000020000005541                                      
00010320210503202100270587885000058788570020931CORDERO BLANCA ROSA        1058788570400000000000                           000000000040010000002000000000000000000000000000000000000000000000000000000000000000000000000000000000000000000000000000000000000000000000000000000000000000000000000000000000000000000000000000000000000000000000000000000000000000000000000000000000000000000000000000000000000000000000000000000000000000000000000000000000000000000000000000000000000000000000000000000000000000000000000000000000000000000000000000000000000000000000000000000000000000000101210000000000000000000000000000000000000000GOBIERNO DE LA PROVINCIA DE CORDOBA   MINISTERIO DE DESARROLLO SOCIAL       PROGRAMA VIDA DIGNA                   APODERADO DE                          CORDERO BLANCA ROSA                                                                                                                                     100000000000000000000000000 000000000000000000000000000020000005541                                      
00010320210503202100232692495000269249570020931ESCUDERO EDUARDO SEBASTIAN 1269249570400000000000                           000000000040010000002000000000000000000000000000000000000000000000000000000000000000000000000000000000000000000000000000000000000000000000000000000000000000000000000000000000000000000000000000000000000000000000000000000000000000000000000000000000000000000000000000000000000000000000000000000000000000000000000000000000000000000000000000000000000000000000000000000000000000000000000000000000000000000000000000000000000000000000000000000000000000000101210000000000000000000000000000000000000000GOBIERNO DE LA PROVINCIA DE CORDOBA   MINISTERIO DE DESARROLLO SOCIAL       PROGRAMA VIDA DIGNA                   APODERADO DE                          ESCUDERO EDUARDO SEBASTIAN                                                                                                                              100000000000000000000000000 000000000000000000000000000020000005541                                      
00010320210503202100271665589000166558930020931ESCUDERO IRMA CRISTINA     1166558930400000000000                           000000000040010000002000000000000000000000000000000000000000000000000000000000000000000000000000000000000000000000000000000000000000000000000000000000000000000000000000000000000000000000000000000000000000000000000000000000000000000000000000000000000000000000000000000000000000000000000000000000000000000000000000000000000000000000000000000000000000000000000000000000000000000000000000000000000000000000000000000000000000000000000000000000000000000101210000000000000000000000000000000000000000GOBIERNO DE LA PROVINCIA DE CORDOBA   MINISTERIO DE DESARROLLO SOCIAL       PROGRAMA VIDA DIGNA                   APODERADO DE                          ESCUDERO IRMA CRISTINA                                                                                                                                  100000000000000000000000000 000000000000000000000000000020000005541                                      
00010320210503202100273528010000352801030020931GALVAN SILVANA             1352801030400000000000                           000000000040010000002000000000000000000000000000000000000000000000000000000000000000000000000000000000000000000000000000000000000000000000000000000000000000000000000000000000000000000000000000000000000000000000000000000000000000000000000000000000000000000000000000000000000000000000000000000000000000000000000000000000000000000000000000000000000000000000000000000000000000000000000000000000000000000000000000000000000000000000000000000000000000000101210000000000000000000000000000000000000000GOBIERNO DE LA PROVINCIA DE CORDOBA   MINISTERIO DE DESARROLLO SOCIAL       PROGRAMA VIDA DIGNA                   APODERADO DE                          GALVAN SILVANA                                                                                                                                          100000000000000000000000000 000000000000000000000000000020000005541                                      
00010320210503202100270233163000023316380020931GARAY MARIA ROSA           1023316380400000000000                           000000000040010000002000000000000000000000000000000000000000000000000000000000000000000000000000000000000000000000000000000000000000000000000000000000000000000000000000000000000000000000000000000000000000000000000000000000000000000000000000000000000000000000000000000000000000000000000000000000000000000000000000000000000000000000000000000000000000000000000000000000000000000000000000000000000000000000000000000000000000000000000000000000000000000101210000000000000000000000000000000000000000GOBIERNO DE LA PROVINCIA DE CORDOBA   MINISTERIO DE DESARROLLO SOCIAL       PROGRAMA VIDA DIGNA                   APODERADO DE                          GARAY MARIA ROSA                                                                                                                                        100000000000000000000000000 000000000000000000000000000020000005541                                      
00010320210503202100272054404000205440480020931GARAY SUSANA CRISTINA      1205440480400000000000                           000000000040010000002000000000000000000000000000000000000000000000000000000000000000000000000000000000000000000000000000000000000000000000000000000000000000000000000000000000000000000000000000000000000000000000000000000000000000000000000000000000000000000000000000000000000000000000000000000000000000000000000000000000000000000000000000000000000000000000000000000000000000000000000000000000000000000000000000000000000000000000000000000000000000000101210000000000000000000000000000000000000000GOBIERNO DE LA PROVINCIA DE CORDOBA   MINISTERIO DE DESARROLLO SOCIAL       PROGRAMA VIDA DIGNA                   APODERADO DE                          GARAY SUSANA CRISTINA                                                                                                                                   100000000000000000000000000 000000000000000000000000000020000005541                                      
00010320210503202100202746822000274682220020931GAUNA JOSE JORGE           1274682220400000000000                           000000000040010000002000000000000000000000000000000000000000000000000000000000000000000000000000000000000000000000000000000000000000000000000000000000000000000000000000000000000000000000000000000000000000000000000000000000000000000000000000000000000000000000000000000000000000000000000000000000000000000000000000000000000000000000000000000000000000000000000000000000000000000000000000000000000000000000000000000000000000000000000000000000000000000101210000000000000000000000000000000000000000GOBIERNO DE LA PROVINCIA DE CORDOBA   MINISTERIO DE DESARROLLO SOCIAL       PROGRAMA VIDA DIGNA                   APODERADO DE                          GAUNA JOSE JORGE                                                                                                                                        100000000000000000000000000 000000000000000000000000000020000005541                                      
00010320210503202100272712548000271254890020931GAUNA MYRIAN BEATRIZ       1271254890400000000000                           000000000040010000002000000000000000000000000000000000000000000000000000000000000000000000000000000000000000000000000000000000000000000000000000000000000000000000000000000000000000000000000000000000000000000000000000000000000000000000000000000000000000000000000000000000000000000000000000000000000000000000000000000000000000000000000000000000000000000000000000000000000000000000000000000000000000000000000000000000000000000000000000000000000000000101210000000000000000000000000000000000000000GOBIERNO DE LA PROVINCIA DE CORDOBA   MINISTERIO DE DESARROLLO SOCIAL       PROGRAMA VIDA DIGNA                   APODERADO DE                          GAUNA MYRIAN BEATRIZ                                                                                                                                    100000000000000000000000000 000000000000000000000000000020000005541                                      
00010320210503202100273954651000395465110020931GIL RITA CATALINA          1395465110400000000000                           000000000040010000002000000000000000000000000000000000000000000000000000000000000000000000000000000000000000000000000000000000000000000000000000000000000000000000000000000000000000000000000000000000000000000000000000000000000000000000000000000000000000000000000000000000000000000000000000000000000000000000000000000000000000000000000000000000000000000000000000000000000000000000000000000000000000000000000000000000000000000000000000000000000000000101210000000000000000000000000000000000000000GOBIERNO DE LA PROVINCIA DE CORDOBA   MINISTERIO DE DESARROLLO SOCIAL       PROGRAMA VIDA DIGNA                   APODERADO DE                          GIL RITA CATALINA                                                                                                                                       100000000000000000000000000 000000000000000000000000000020000005541                                      
00010320210503202100271458847000145884780020931GIL SILVIA                 1145884780400000000000                           000000000040010000002000000000000000000000000000000000000000000000000000000000000000000000000000000000000000000000000000000000000000000000000000000000000000000000000000000000000000000000000000000000000000000000000000000000000000000000000000000000000000000000000000000000000000000000000000000000000000000000000000000000000000000000000000000000000000000000000000000000000000000000000000000000000000000000000000000000000000000000000000000000000000000101210000000000000000000000000000000000000000GOBIERNO DE LA PROVINCIA DE CORDOBA   MINISTERIO DE DESARROLLO SOCIAL       PROGRAMA VIDA DIGNA                   APODERADO DE                          GIL SILVIA                                                                                                                                              100000000000000000000000000 000000000000000000000000000020000005541                                      
00010320210503202100203648054000364805430020931GOMEZ FEDERICO SAUL        1364805430400000000000                           000000000040010000002000000000000000000000000000000000000000000000000000000000000000000000000000000000000000000000000000000000000000000000000000000000000000000000000000000000000000000000000000000000000000000000000000000000000000000000000000000000000000000000000000000000000000000000000000000000000000000000000000000000000000000000000000000000000000000000000000000000000000000000000000000000000000000000000000000000000000000000000000000000000000000101210000000000000000000000000000000000000000GOBIERNO DE LA PROVINCIA DE CORDOBA   MINISTERIO DE DESARROLLO SOCIAL       PROGRAMA VIDA DIGNA                   APODERADO DE                          GOMEZ FEDERICO SAUL                                                                                                                                     100000000000000000000000000 000000000000000000000000000020000005541                                      
00010320210503202100203787305000378730570020931GUEVARA DIEGO ANTONIO      1378730570400000000000                           000000000040010000002000000000000000000000000000000000000000000000000000000000000000000000000000000000000000000000000000000000000000000000000000000000000000000000000000000000000000000000000000000000000000000000000000000000000000000000000000000000000000000000000000000000000000000000000000000000000000000000000000000000000000000000000000000000000000000000000000000000000000000000000000000000000000000000000000000000000000000000000000000000000000000101210000000000000000000000000000000000000000GOBIERNO DE LA PROVINCIA DE CORDOBA   MINISTERIO DE DESARROLLO SOCIAL       PROGRAMA VIDA DIGNA                   APODERADO DE                          GUEVARA DIEGO ANTONIO                                                                                                                                   100000000000000000000000000 000000000000000000000000000020000005541                                      
00010320210503202100272008181000200818130020931HEREDIA LUCIA CRISTINA     1200818130400000000000                           000000000040010000002000000000000000000000000000000000000000000000000000000000000000000000000000000000000000000000000000000000000000000000000000000000000000000000000000000000000000000000000000000000000000000000000000000000000000000000000000000000000000000000000000000000000000000000000000000000000000000000000000000000000000000000000000000000000000000000000000000000000000000000000000000000000000000000000000000000000000000000000000000000000000000101210000000000000000000000000000000000000000GOBIERNO DE LA PROVINCIA DE CORDOBA   MINISTERIO DE DESARROLLO SOCIAL       PROGRAMA VIDA DIGNA                   APODERADO DE                          HEREDIA LUCIA CRISTINA                                                                                                                                  100000000000000000000000000 000000000000000000000000000020000005541                                      
00010320210503202100203210733000321073310020931LOPEZ ARIEL RODRIGO        1321073310400000000000                           000000000040010000002000000000000000000000000000000000000000000000000000000000000000000000000000000000000000000000000000000000000000000000000000000000000000000000000000000000000000000000000000000000000000000000000000000000000000000000000000000000000000000000000000000000000000000000000000000000000000000000000000000000000000000000000000000000000000000000000000000000000000000000000000000000000000000000000000000000000000000000000000000000000000000101210000000000000000000000000000000000000000GOBIERNO DE LA PROVINCIA DE CORDOBA   MINISTERIO DE DESARROLLO SOCIAL       PROGRAMA VIDA DIGNA                   APODERADO DE                          LOPEZ ARIEL RODRIGO                                                                                                                                     100000000000000000000000000 000000000000000000000000000020000005541                                      
00010320210503202100204067893000406789360020931LOPEZ JOSE HERNAN          1406789360400000000000                           000000000040010000002000000000000000000000000000000000000000000000000000000000000000000000000000000000000000000000000000000000000000000000000000000000000000000000000000000000000000000000000000000000000000000000000000000000000000000000000000000000000000000000000000000000000000000000000000000000000000000000000000000000000000000000000000000000000000000000000000000000000000000000000000000000000000000000000000000000000000000000000000000000000000000101210000000000000000000000000000000000000000GOBIERNO DE LA PROVINCIA DE CORDOBA   MINISTERIO DE DESARROLLO SOCIAL       PROGRAMA VIDA DIGNA                   APODERADO DE                          LOPEZ JOSE HERNAN                                                                                                                                       100000000000000000000000000 000000000000000000000000000020000005541                                      
00010320210503202100203648057000364805700020931LPEZ LEONARDO OMAR ANTONIO1364805700400000000000                           000000000040010000002000000000000000000000000000000000000000000000000000000000000000000000000000000000000000000000000000000000000000000000000000000000000000000000000000000000000000000000000000000000000000000000000000000000000000000000000000000000000000000000000000000000000000000000000000000000000000000000000000000000000000000000000000000000000000000000000000000000000000000000000000000000000000000000000000000000000000000000000000000000000000000101210000000000000000000000000000000000000000GOBIERNO DE LA PROVINCIA DE CORDOBA   MINISTERIO DE DESARROLLO SOCIAL       PROGRAMA VIDA DIGNA                   APODERADO DE                          LPEZ LEONARDO OMAR ANTONIO                                                                                                                             100000000000000000000000000 000000000000000000000000000020000005541                                      
00010320210503202100270627166000062716650020931LUJAN AZUCENA MARTHA       1062716650400000000000                           000000000040010000002000000000000000000000000000000000000000000000000000000000000000000000000000000000000000000000000000000000000000000000000000000000000000000000000000000000000000000000000000000000000000000000000000000000000000000000000000000000000000000000000000000000000000000000000000000000000000000000000000000000000000000000000000000000000000000000000000000000000000000000000000000000000000000000000000000000000000000000000000000000000000000101210000000000000000000000000000000000000000GOBIERNO DE LA PROVINCIA DE CORDOBA   MINISTERIO DE DESARROLLO SOCIAL       PROGRAMA VIDA DIGNA                   APODERADO DE                          LUJAN AZUCENA MARTHA                                                                                                                                    100000000000000000000000000 000000000000000000000000000020000005541                                      
00010320210503202100232871577000287157780020931OVIEDO MARTIN SANTOS       1287157780400000000000                           000000000040010000002000000000000000000000000000000000000000000000000000000000000000000000000000000000000000000000000000000000000000000000000000000000000000000000000000000000000000000000000000000000000000000000000000000000000000000000000000000000000000000000000000000000000000000000000000000000000000000000000000000000000000000000000000000000000000000000000000000000000000000000000000000000000000000000000000000000000000000000000000000000000000000101210000000000000000000000000000000000000000GOBIERNO DE LA PROVINCIA DE CORDOBA   MINISTERIO DE DESARROLLO SOCIAL       PROGRAMA VIDA DIGNA                   APODERADO DE                          OVIEDO MARTIN SANTOS                                                                                                                                    100000000000000000000000000 000000000000000000000000000020000005541                                      
00010320210503202100273349195000334919580020931PONCE JUANA MARTA          1334919580400000000000                           000000000040010000002000000000000000000000000000000000000000000000000000000000000000000000000000000000000000000000000000000000000000000000000000000000000000000000000000000000000000000000000000000000000000000000000000000000000000000000000000000000000000000000000000000000000000000000000000000000000000000000000000000000000000000000000000000000000000000000000000000000000000000000000000000000000000000000000000000000000000000000000000000000000000000101210000000000000000000000000000000000000000GOBIERNO DE LA PROVINCIA DE CORDOBA   MINISTERIO DE DESARROLLO SOCIAL       PROGRAMA VIDA DIGNA                   APODERADO DE                          PONCE JUANA MARTA                                                                                                                                       100000000000000000000000000 000000000000000000000000000020000005541                                      
00010320210503202100273349197000334919740020931RIVERO ELIANA JIMENA       1334919740400000000000                           000000000040010000002000000000000000000000000000000000000000000000000000000000000000000000000000000000000000000000000000000000000000000000000000000000000000000000000000000000000000000000000000000000000000000000000000000000000000000000000000000000000000000000000000000000000000000000000000000000000000000000000000000000000000000000000000000000000000000000000000000000000000000000000000000000000000000000000000000000000000000000000000000000000000000101210000000000000000000000000000000000000000GOBIERNO DE LA PROVINCIA DE CORDOBA   MINISTERIO DE DESARROLLO SOCIAL       PROGRAMA VIDA DIGNA                   APODERADO DE                          RIVERO ELIANA JIMENA                                                                                                                                    100000000000000000000000000 000000000000000000000000000020000005541                                      
00010320210503202100274067899000406789900020931SALVATIERRA MARIELA MALEN  1406789900400000000000                           000000000040010000002000000000000000000000000000000000000000000000000000000000000000000000000000000000000000000000000000000000000000000000000000000000000000000000000000000000000000000000000000000000000000000000000000000000000000000000000000000000000000000000000000000000000000000000000000000000000000000000000000000000000000000000000000000000000000000000000000000000000000000000000000000000000000000000000000000000000000000000000000000000000000000101210000000000000000000000000000000000000000GOBIERNO DE LA PROVINCIA DE CORDOBA   MINISTERIO DE DESARROLLO SOCIAL       PROGRAMA VIDA DIGNA                   APODERADO DE                          SALVATIERRA MARIELA MALEN                                                                                                                               100000000000000000000000000 000000000000000000000000000020000005541                                      
00010320210503202100274188848000418884870020931ACOSTA DEBORA SALOME       1418884870400000000000                           000000000040010000002000000000000000000000000000000000000000000000000000000000000000000000000000000000000000000000000000000000000000000000000000000000000000000000000000000000000000000000000000000000000000000000000000000000000000000000000000000000000000000000000000000000000000000000000000000000000000000000000000000000000000000000000000000000000000000000000000000000000000000000000000000000000000000000000000000000000000000000000000000000000000000101210000000000000000000000000000000000000000GOBIERNO DE LA PROVINCIA DE CORDOBA   MINISTERIO DE DESARROLLO SOCIAL       PROGRAMA VIDA DIGNA                   APODERADO DE                          ACOSTA DEBORA SALOME                                                                                                                                    100000000000000000000000000 000000000000000000000000000020000005541                                      
00010320210503202100272571213000257121330020931AGERO MARIA LORENA        1257121330400000000000                           000000000040010000002000000000000000000000000000000000000000000000000000000000000000000000000000000000000000000000000000000000000000000000000000000000000000000000000000000000000000000000000000000000000000000000000000000000000000000000000000000000000000000000000000000000000000000000000000000000000000000000000000000000000000000000000000000000000000000000000000000000000000000000000000000000000000000000000000000000000000000000000000000000000000000101210000000000000000000000000000000000000000GOBIERNO DE LA PROVINCIA DE CORDOBA   MINISTERIO DE DESARROLLO SOCIAL       PROGRAMA VIDA DIGNA                   APODERADO DE                          AGERO MARIA LORENA                                                                                                                                     100000000000000000000000000 000000000000000000000000000020000005541                                      
00010320210503202100273308585000330858590020931AGUIRRE MIRIAM ROMINA      1330858590400000000000                           000000000040010000002000000000000000000000000000000000000000000000000000000000000000000000000000000000000000000000000000000000000000000000000000000000000000000000000000000000000000000000000000000000000000000000000000000000000000000000000000000000000000000000000000000000000000000000000000000000000000000000000000000000000000000000000000000000000000000000000000000000000000000000000000000000000000000000000000000000000000000000000000000000000000000101210000000000000000000000000000000000000000GOBIERNO DE LA PROVINCIA DE CORDOBA   MINISTERIO DE DESARROLLO SOCIAL       PROGRAMA VIDA DIGNA                   APODERADO DE                          AGUIRRE MIRIAM ROMINA                                                                                                                                   100000000000000000000000000 000000000000000000000000000020000005541                                      
00010320210503202100273073299000307329970020931ARGUELLO LIDIA PAOLA       1307329970400000000000                           000000000040010000002000000000000000000000000000000000000000000000000000000000000000000000000000000000000000000000000000000000000000000000000000000000000000000000000000000000000000000000000000000000000000000000000000000000000000000000000000000000000000000000000000000000000000000000000000000000000000000000000000000000000000000000000000000000000000000000000000000000000000000000000000000000000000000000000000000000000000000000000000000000000000000101210000000000000000000000000000000000000000GOBIERNO DE LA PROVINCIA DE CORDOBA   MINISTERIO DE DESARROLLO SOCIAL       PROGRAMA VIDA DIGNA                   APODERADO DE                          ARGUELLO LIDIA PAOLA                                                                                                                                    100000000000000000000000000 000000000000000000000000000020000005541                                      
00010320210503202100274029914000402991400020931BARRIOS KATYA ESMERALDA    1402991400400000000000                           000000000040010000002000000000000000000000000000000000000000000000000000000000000000000000000000000000000000000000000000000000000000000000000000000000000000000000000000000000000000000000000000000000000000000000000000000000000000000000000000000000000000000000000000000000000000000000000000000000000000000000000000000000000000000000000000000000000000000000000000000000000000000000000000000000000000000000000000000000000000000000000000000000000000000101210000000000000000000000000000000000000000GOBIERNO DE LA PROVINCIA DE CORDOBA   MINISTERIO DE DESARROLLO SOCIAL       PROGRAMA VIDA DIGNA                   APODERADO DE                          BARRIOS KATYA ESMERALDA                                                                                                                                 100000000000000000000000000 000000000000000000000000000020000005541                                      
00010320210503202100202639164000263916470020931CALDERON JAVIER IGNACIO    1263916470400000000000                           000000000040010000002000000000000000000000000000000000000000000000000000000000000000000000000000000000000000000000000000000000000000000000000000000000000000000000000000000000000000000000000000000000000000000000000000000000000000000000000000000000000000000000000000000000000000000000000000000000000000000000000000000000000000000000000000000000000000000000000000000000000000000000000000000000000000000000000000000000000000000000000000000000000000000101210000000000000000000000000000000000000000GOBIERNO DE LA PROVINCIA DE CORDOBA   MINISTERIO DE DESARROLLO SOCIAL       PROGRAMA VIDA DIGNA                   APODERADO DE                          CALDERON JAVIER IGNACIO                                                                                                                                 100000000000000000000000000 000000000000000000000000000020000005541                                      
00010320210503202100203253043000325304360020931CALDERON PEDRO FACUNDO     1325304360400000000000                           000000000040010000002000000000000000000000000000000000000000000000000000000000000000000000000000000000000000000000000000000000000000000000000000000000000000000000000000000000000000000000000000000000000000000000000000000000000000000000000000000000000000000000000000000000000000000000000000000000000000000000000000000000000000000000000000000000000000000000000000000000000000000000000000000000000000000000000000000000000000000000000000000000000000000101210000000000000000000000000000000000000000GOBIERNO DE LA PROVINCIA DE CORDOBA   MINISTERIO DE DESARROLLO SOCIAL       PROGRAMA VIDA DIGNA                   APODERADO DE                          CALDERON PEDRO FACUNDO                                                                                                                                  100000000000000000000000000 000000000000000000000000000020000005541                                      
00010320210503202100203748853000374885310020931CASTRO CRISTIAN CLAUDIO    1374885310400000000000                           000000000040010000002000000000000000000000000000000000000000000000000000000000000000000000000000000000000000000000000000000000000000000000000000000000000000000000000000000000000000000000000000000000000000000000000000000000000000000000000000000000000000000000000000000000000000000000000000000000000000000000000000000000000000000000000000000000000000000000000000000000000000000000000000000000000000000000000000000000000000000000000000000000000000000101210000000000000000000000000000000000000000GOBIERNO DE LA PROVINCIA DE CORDOBA   MINISTERIO DE DESARROLLO SOCIAL       PROGRAMA VIDA DIGNA                   APODERADO DE                          CASTRO CRISTIAN CLAUDIO                                                                                                                                 100000000000000000000000000 000000000000000000000000000020000005541                                      
00010320210503202100232545904000254590470020931CASTRO ORLANDO RAFAEL      1254590470400000000000                           000000000040010000002000000000000000000000000000000000000000000000000000000000000000000000000000000000000000000000000000000000000000000000000000000000000000000000000000000000000000000000000000000000000000000000000000000000000000000000000000000000000000000000000000000000000000000000000000000000000000000000000000000000000000000000000000000000000000000000000000000000000000000000000000000000000000000000000000000000000000000000000000000000000000000101210000000000000000000000000000000000000000GOBIERNO DE LA PROVINCIA DE CORDOBA   MINISTERIO DE DESARROLLO SOCIAL       PROGRAMA VIDA DIGNA                   APODERADO DE                          CASTRO ORLANDO RAFAEL                                                                                                                                   100000000000000000000000000 000000000000000000000000000020000005541                                      
00010320210503202100273587104000358710400020931CASTRO YOHANA SOLEDAD      1358710400400000000000                           000000000040010000002000000000000000000000000000000000000000000000000000000000000000000000000000000000000000000000000000000000000000000000000000000000000000000000000000000000000000000000000000000000000000000000000000000000000000000000000000000000000000000000000000000000000000000000000000000000000000000000000000000000000000000000000000000000000000000000000000000000000000000000000000000000000000000000000000000000000000000000000000000000000000000101210000000000000000000000000000000000000000GOBIERNO DE LA PROVINCIA DE CORDOBA   MINISTERIO DE DESARROLLO SOCIAL       PROGRAMA VIDA DIGNA                   APODERADO DE                          CASTRO YOHANA SOLEDAD                                                                                                                                   100000000000000000000000000 000000000000000000000000000020000005541                                      
00010320210503202100243258457000325845720020931FALCON ANALIA DEL CARMEN   1325845720400000000000                           000000000040010000002000000000000000000000000000000000000000000000000000000000000000000000000000000000000000000000000000000000000000000000000000000000000000000000000000000000000000000000000000000000000000000000000000000000000000000000000000000000000000000000000000000000000000000000000000000000000000000000000000000000000000000000000000000000000000000000000000000000000000000000000000000000000000000000000000000000000000000000000000000000000000000101210000000000000000000000000000000000000000GOBIERNO DE LA PROVINCIA DE CORDOBA   MINISTERIO DE DESARROLLO SOCIAL       PROGRAMA VIDA DIGNA                   APODERADO DE                          FALCON ANALIA DEL CARMEN                                                                                                                                100000000000000000000000000 000000000000000000000000000020000005541                                      
00010320210503202100202242835000224283550020931FREDES GUSTAVO RAMON       1224283550400000000000                           000000000040010000002000000000000000000000000000000000000000000000000000000000000000000000000000000000000000000000000000000000000000000000000000000000000000000000000000000000000000000000000000000000000000000000000000000000000000000000000000000000000000000000000000000000000000000000000000000000000000000000000000000000000000000000000000000000000000000000000000000000000000000000000000000000000000000000000000000000000000000000000000000000000000000101210000000000000000000000000000000000000000GOBIERNO DE LA PROVINCIA DE CORDOBA   MINISTERIO DE DESARROLLO SOCIAL       PROGRAMA VIDA DIGNA                   APODERADO DE                          FREDES GUSTAVO RAMON                                                                                                                                    100000000000000000000000000 000000000000000000000000000020000005541                                      
00010320210503202100203365433000336543340020931NIEVAS RICARDO JAVIER      1336543340400000000000                           000000000040010000002000000000000000000000000000000000000000000000000000000000000000000000000000000000000000000000000000000000000000000000000000000000000000000000000000000000000000000000000000000000000000000000000000000000000000000000000000000000000000000000000000000000000000000000000000000000000000000000000000000000000000000000000000000000000000000000000000000000000000000000000000000000000000000000000000000000000000000000000000000000000000000101210000000000000000000000000000000000000000GOBIERNO DE LA PROVINCIA DE CORDOBA   MINISTERIO DE DESARROLLO SOCIAL       PROGRAMA VIDA DIGNA                   APODERADO DE                          NIEVAS RICARDO JAVIER                                                                                                                                   100000000000000000000000000 000000000000000000000000000020000005541                                      
00010320210503202100203158696000315869610020931QUINTEROS DIEGO MANUEL     1315869610400000000000                           000000000040010000002000000000000000000000000000000000000000000000000000000000000000000000000000000000000000000000000000000000000000000000000000000000000000000000000000000000000000000000000000000000000000000000000000000000000000000000000000000000000000000000000000000000000000000000000000000000000000000000000000000000000000000000000000000000000000000000000000000000000000000000000000000000000000000000000000000000000000000000000000000000000000000101210000000000000000000000000000000000000000GOBIERNO DE LA PROVINCIA DE CORDOBA   MINISTERIO DE DESARROLLO SOCIAL       PROGRAMA VIDA DIGNA                   APODERADO DE                          QUINTEROS DIEGO MANUEL                                                                                                                                  100000000000000000000000000 000000000000000000000000000020000005541                                      
00010320210503202100203873024000387302460020931REYNOSO DAVID EMANUEL      1387302460400000000000                           000000000040010000002000000000000000000000000000000000000000000000000000000000000000000000000000000000000000000000000000000000000000000000000000000000000000000000000000000000000000000000000000000000000000000000000000000000000000000000000000000000000000000000000000000000000000000000000000000000000000000000000000000000000000000000000000000000000000000000000000000000000000000000000000000000000000000000000000000000000000000000000000000000000000000101210000000000000000000000000000000000000000GOBIERNO DE LA PROVINCIA DE CORDOBA   MINISTERIO DE DESARROLLO SOCIAL       PROGRAMA VIDA DIGNA                   APODERADO DE                          REYNOSO DAVID EMANUEL                                                                                                                                   100000000000000000000000000 000000000000000000000000000020000005541                                      
00010320210503202100202894414000289441490020931ROJAS ROBERTO CARLOS       1289441490400000000000                           000000000040010000002000000000000000000000000000000000000000000000000000000000000000000000000000000000000000000000000000000000000000000000000000000000000000000000000000000000000000000000000000000000000000000000000000000000000000000000000000000000000000000000000000000000000000000000000000000000000000000000000000000000000000000000000000000000000000000000000000000000000000000000000000000000000000000000000000000000000000000000000000000000000000000101210000000000000000000000000000000000000000GOBIERNO DE LA PROVINCIA DE CORDOBA   MINISTERIO DE DESARROLLO SOCIAL       PROGRAMA VIDA DIGNA                   APODERADO DE                          ROJAS ROBERTO CARLOS                                                                                                                                    100000000000000000000000000 000000000000000000000000000020000005541                                      
00010320210503202100203308589000330858940020931ROMERO JOSE ALEJANDRO      1330858940400000000000                           000000000040010000001500000000000000000000000000000000000000000000000000000000000000000000000000000000000000000000000000000000000000000000000000000000000000000000000000000000000000000000000000000000000000000000000000000000000000000000000000000000000000000000000000000000000000000000000000000000000000000000000000000000000000000000000000000000000000000000000000000000000000000000000000000000000000000000000000000000000000000000000000000000000000000101210000000000000000000000000000000000000000GOBIERNO DE LA PROVINCIA DE CORDOBA   MINISTERIO DE DESARROLLO SOCIAL       PROGRAMA VIDA DIGNA                   APODERADO DE                          ROMERO JOSE ALEJANDRO                                                                                                                                   100000000000000000000000000 000000000000000000000000000015000005541                                      
00010320210503202100203961296000396129610020931ROSALES MIGUEL WALTER      1396129610400000000000                           000000000040010000002000000000000000000000000000000000000000000000000000000000000000000000000000000000000000000000000000000000000000000000000000000000000000000000000000000000000000000000000000000000000000000000000000000000000000000000000000000000000000000000000000000000000000000000000000000000000000000000000000000000000000000000000000000000000000000000000000000000000000000000000000000000000000000000000000000000000000000000000000000000000000000101210000000000000000000000000000000000000000GOBIERNO DE LA PROVINCIA DE CORDOBA   MINISTERIO DE DESARROLLO SOCIAL       PROGRAMA VIDA DIGNA                   APODERADO DE                          ROSALES MIGUEL WALTER                                                                                                                                   100000000000000000000000000 000000000000000000000000000020000005541                                      
00010320210503202100272495386000249538660020931VALLEJOS MIRIAM NOEMI      1249538660400000000000                           000000000040010000002000000000000000000000000000000000000000000000000000000000000000000000000000000000000000000000000000000000000000000000000000000000000000000000000000000000000000000000000000000000000000000000000000000000000000000000000000000000000000000000000000000000000000000000000000000000000000000000000000000000000000000000000000000000000000000000000000000000000000000000000000000000000000000000000000000000000000000000000000000000000000000101210000000000000000000000000000000000000000GOBIERNO DE LA PROVINCIA DE CORDOBA   MINISTERIO DE DESARROLLO SOCIAL       PROGRAMA VIDA DIGNA                   APODERADO DE                          VALLEJOS MIRIAM NOEMI                                                                                                                                   100000000000000000000000000 000000000000000000000000000020000005541                                      
00010320210503202100233563627000356362790020931VILLARREAL FRANCO ROBERTO  1356362790400000000000                           000000000040010000002000000000000000000000000000000000000000000000000000000000000000000000000000000000000000000000000000000000000000000000000000000000000000000000000000000000000000000000000000000000000000000000000000000000000000000000000000000000000000000000000000000000000000000000000000000000000000000000000000000000000000000000000000000000000000000000000000000000000000000000000000000000000000000000000000000000000000000000000000000000000000000101210000000000000000000000000000000000000000GOBIERNO DE LA PROVINCIA DE CORDOBA   MINISTERIO DE DESARROLLO SOCIAL       PROGRAMA VIDA DIGNA                   APODERADO DE                          VILLARREAL FRANCO ROBERTO                                                                                                                               100000000000000000000000000 000000000000000000000000000020000005541                                      